:020000040000FA
:10000000F00400206D020000710200007302000085
:100010007502000077020000790200000000000075
:100020000000000000000000000000007B02000053
:100030007D020000000000007F020000810200003D
:10004000830200008302000083020000830200009C
:1000500083020000D90B000083020000830200002D
:10006000830200008302000083020000830200007C
:10007000830200008302000083020000830200006C
:10008000830200008302000083020000830200005C
:10009000830200008302000083020000830200004C
:1000A000830200008302000083020000830200003C
:1000B00083020000830200000904000083020000A4
:1000C000830200008302000083020000830200001C
:1000D000830200008302000083020000830200000C
:1000E00083020000830200008302000083020000FC
:1000F00083020000830200008302000083020000EC
:1001000083020000830200008302000083020000DB
:1001100083020000830200008302000083020000CB
:1001200083020000830200008302000083020000BB
:10013000F50E00008302000083020000830200002D
:1001400000000000000000000000000000000000AF
:10015000830200008302000083020000830200008B
:10016000000000000000000000000000000000008F
:10017000000000000000000000000000000000007F
:10018000000000000000000000000000000000006F
:10019000000000000000000000000000000000005F
:1001A000000000000000000000000000000000004F
:1001B000830200008302000083020000830200002B
:1001C000830200008302000083020000830200001B
:1001D000830200008302000083020000830200000B
:1001E00083020000830200008302000083020000FB
:1001F00083020000830200008302000083020000EB
:10020000830200008302000083020000000000005F
:1002100083020000830200008302000083020000CA
:1002200083020000830200008302000083020000BA
:1002300083020000830200008302000083020000AA
:10024000830200008302000083020000830200009A
:10025000830200008302000083020000830200008A
:1002600083020000830200008302000000F00AB84D
:10027000FEE7FEE7FEE7FEE7FEE7FEE7FEE7FEE756
:10028000FEE7FEE700F002F800F042F814A696E858
:10029000000CB244B344DA4501D100F039F8BAE8B1
:1002A0000F000FA696E83000A5EB040504EB060747
:1002B000AAEB0704A7F101074FEA15154FEA34141A
:1002C000A4F10104AC4201D300F022F813F0010FB5
:1002D00018BFFB1A43F0010300F001F8DBE71847F1
:1002E000481A0000581A000070470000002300243C
:1002F00000250026103A28BF78C1FBD8520728BF36
:1003000030C148BF0B6070471FB51FBD10B510BD91
:1003100000F029F81146FFF7F7FF00F0DFFE00F0CC
:1003200047F803B4FFF7F2FF03BC00F04FF80000FA
:1003300072B6704762B67047EFF3108072B67047BE
:1003400080F31088704730BF704702480249014A65
:10035000024B7047F0000020F0040020F000002065
:10036000704770477047754600F02CF8AE460500A0
:100370006946534620F00700854618B020B5FFF7C0
:10038000E4FFBDE820404FF000064FF000074FF0BB
:1003900000084FF0000BAC46ACE8C009ACE8C0095F
:1003A000ACE8C009ACE8C00921F007018D467047F0
:1003B00010B50446AFF300802046BDE81040FFF7BB
:1003C000B0BF00000048704700000020014918201D
:1003D000ABBEFEE7260002007047000082B001902D
:1003E000FFE70198411E019158B1FFE743F2D400A5
:1003F0000090FFE70098411E009108B1FFE7F9E780
:10040000EFE702B07047000080B582B045F21840B7
:10041000C4F2020000680190019845F21C41C4F248
:10042000020108609DF80400C00600280AD5FFE715
:100430001420FFF7D3FF40F26101C2F20001012056
:100440000870FFE79DF80400C007B0B1FFE7142073
:10045000FFF7C4FF40F2EB00C2F200000178013167
:1004600001700078082807D1FFE740F2EB01C2F2E3
:10047000000100200870FFE7FFE702B080BD000028
:1004800080B582B08DF8070040F2EC00C2F20000A7
:10049000007801460091072800F2BE800099DFE84D
:1004A00001F0041A31485F768DA4002210461146EF
:1004B00000F0F2FA41F6AE40C0F2000000F0E4FCB9
:1004C0009DF8070000F0F2FC41F69A10C0F200001F
:1004D00000F0DAFCA0E09DF807000022114600F0D1
:1004E000DBFA41F64440C0F2000000F0CDFC9DF87C
:1004F000070000F0DBFC41F69A10C0F2000000F0AB
:10050000C3FC89E09DF807200021084600F0C4FAEA
:1005100041F6E240C0F2000000F0B6FC9DF8070092
:1005200000F0C4FC41F69A10C0F2000000F0ACFCF0
:1005300072E09DF807100022104600F0ADFA41F677
:100540009440C0F2000000F09FFC9DF8070000F00E
:10055000ADFC41F69A10C0F2000000F095FC5BE0A3
:100560009DF807200021104600F096FA41F6FD4064
:10057000C0F2000000F088FC9DF8070000F096FC37
:1005800041F69A10C0F2000000F07EFC44E09DF8B5
:1005900007200020114600F07FFA41F6C840C0F263
:1005A000000000F071FC9DF8070000F07FFC41F6B0
:1005B0009A10C0F2000000F067FC2DE09DF80710D3
:1005C0000022084600F068FA41F65D40C0F20000E3
:1005D00000F05AFC9DF8070000F068FC41F69A1004
:1005E000C0F2000000F050FC16E09DF80720104615
:1005F000114600F051FA41F67940C0F2000000F0D7
:1006000043FC9DF8070000F051FC41F69A10C0F23F
:10061000000000F039FCFFE702B080BD80B582B079
:100620008DF807009DF807006238014600911728F1
:1006300000F29E800099DFE801F041650C9B9B2F42
:100640009B9B9B9B9B9B9B9B779B1D9B9B9B9B89AE
:100650009B5340F2EC00C2F20000002202701046F0
:10066000114600F019FA41F6CD20C0F2000000F06A
:100670000BFC84E040F2EC01C2F2000101200870A2
:1006800064200022114600F007FA41F60820C0F26B
:10069000000000F0F9FB72E040F2EC01C2F2000150
:1006A0000220087000216422084600F0F5F941F6A6
:1006B0006B30C0F2000000F0E7FB60E040F2EC01BC
:1006C000C2F200010320087064210022104600F0ED
:1006D000E3F941F6B520C0F2000000F0D5FB4EE092
:1006E00040F2EC01C2F200010420087000216422F3
:1006F000104600F0D1F941F62A40C0F2000000F0A7
:10070000C3FB3CE040F2EC01C2F20001052008709E
:1007100000206422114600F0BFF941F65330C0F2C8
:10072000000000F0B1FB2AE040F2EC01C2F200014F
:100730000620087064210022084600F0ADF941F659
:100740006B20C0F2000000F09FFB18E040F2EC01CB
:10075000C2F200010720087064221046114600F022
:100760009BF941F69C20C0F2000000F08DFBFFE7F2
:1007700041F6F630C0F2000000F086FBFFE702B061
:1007800080BD000080B582B08DF807009DF807009D
:1007900062380146009117283ED80099DFE801F041
:1007A0001E2A0C3C3C183C3C3C3C3C3C3C3C303C19
:1007B000123C3C3C3C363C2400221046114600F0E2
:1007C0006BF929E064200022114600F065F923E06E
:1007D00000216422084600F05FF91DE06421002238
:1007E000104600F059F917E000216422104600F08D
:1007F00053F911E000206422114600F04DF90BE09E
:1008000064210022084600F047F905E06422104602
:10081000114600F041F9FFE702B080BD81B04EF211
:100820007001C4F20F010091086840F000400860B8
:10083000086840F4006008604EF26002C4F20F02E3
:10084000106820F4F8601060106800F5A86010606F
:10085000086820F07000086008680860086820F4E4
:1008600000500860086840F080400860086807226F
:1008700062F39C500860FFE74EF25000C4F20F0094
:1008800000684006002801D4FFE7F5E74EF270014A
:10089000C4F20F01086820F40060086001B07047DE
:1008A00010B54EF24061C4F20F01086840F002003A
:1008B00008604EF20861C4F20F01086840F02000A1
:1008C0000860FFE74EF60820C4F20F0000688006BB
:1008D000002801D4FFE7F5E745F22051C4F20201F8
:1008E00044F24B30C4F64F40086045F22451C4F244
:1008F0000201086840F01F00086045F2004CC4F295
:10090000020CDCF8000040F00E00CCF8000045F2CC
:100910001C53C4F20203186840F00E00186045F240
:100920002852C4F20202106820F00E00106045F256
:100930002041C4F20201086840F00E00086045F250
:100940002C5EC4F2020EDEF8000040F2555464F34F
:100950000F10CEF80000DCF8000020F01100CCF8F9
:100960000000186840F011001860106820F01100B5
:100970001060086820F01100086045F21051C4F2C0
:100980000201086840F01100086045F20441C4F219
:100990000201086820F01100086045F20841C4F225
:1009A0000201086820F01100086045F20C41C4F211
:1009B0000201086820F01100086045F21C41C4F2F1
:1009C00002011120086045F21041C4F202010868DA
:1009D00040F0110008604EF21C41CEF200010868A0
:1009E000402262F3174008604EF20011CEF200017F
:1009F000086840F08040086049F2C00CC4F2020C64
:100A00000020CCF8000049F2E401C4F2020140F6F3
:100A100008430B6049F2D001C4F202014CF24F329C
:100A20000A6049F2DC01C4F202010860DCF800103F
:100A300041F00101CCF8001049F20011C4F20201AA
:100A4000086049F2201EC4F2020E4FF0C80CCEF826
:100A500000C049F2241CC4F2020CCCF8003049F268
:100A60001013C4F202031A6049F21812C4F202020F
:100A7000106049F21C12C4F202021060086840F0D3
:100A80000100086049F20801C4F20201086840F060
:100A9000E000086010BD000085B08DF813008DF8EF
:100AA00012108DF811204CF2503003909DF8130075
:100AB00018B9FFE70020029020E09DF81300642899
:100AC00004D1FFE74CF24E30029016E003989DF8F7
:100AD0001310484348F21F51C5F2EB11A0FB01105F
:100AE0004009029002984CF24F31884204D3FFE74C
:100AF0004CF24E300290FFE7FFE7FFE79DF812004F
:100B000018B9FFE70020019020E09DF8120064284A
:100B100004D1FFE74CF24E30019016E003989DF8A7
:100B20001210484348F21F51C5F2EB11A0FB01100F
:100B30004009019001984CF24F31884204D3FFE7FD
:100B40004CF24E300190FFE7FFE7FFE79DF8110000
:100B500018B9FFE70020009020E09DF811006428FC
:100B600004D1FFE74CF24E30009016E003989DF858
:100B70001110484348F21F51C5F2EB11A0FB0110C0
:100B80004009009000984CF24F31884204D3FFE7AF
:100B90004CF24E300090FFE7FFE7FFE7029849F282
:100BA000DC01C4F202010860019849F21811C4F294
:100BB00002010860009849F21C11C4F202010860A9
:100BC00005B0704780B5FFF729FEFFF769FE00F01A
:100BD000B5F800F0D5F980BD80B582B04CF23C008C
:100BE000C4F200000068C006002836D5FFE7FFE722
:100BF0004CF21800C4F200000068C006002825D49A
:100C0000FFE74CF20000C4F2000000688DF8070016
:100C10009DF807005E280FD1FFE740F26001C2F2A5
:100C20000001002008709DF8071040F26200C2F237
:100C3000000000F069FD08E09DF8071040F2620036
:100C4000C2F2000000F060FDFFE7D1E74CF2440182
:100C5000C4F2000110200860FFE74CF23C00C4F22F
:100C6000000000688006002807D5FFE74CF2440129
:100C7000C4F2000120200860FFE702B080BD000040
:100C800080B582B0FFE740F26200C2F200000DF1D1
:100C9000070100F00DFD08B9FFE7F4E79DF8070034
:100CA00002B080BD80B584B0002003900290FFF7B1
:100CB000E7FF8DF80700FFE79DF807000D283AD001
:100CC000FFE79DF80700302816DBFFE79DF80700D7
:100CD000392811DCFFE7039800EB80019DF807003D
:100CE00000EB4100303803900298013002909DF8EB
:100CF000070000F0B1F819E09DF80700082814D1AA
:100D0000FFE7029888B1FFE703984CF6CD41CCF697
:100D1000CC41A0FB0110C00803900298013802905A
:100D20009DF8070000F098F8FFE7FFE7FFF7A8FF3E
:100D30008DF80700C0E7039804B080BD80B54EF27F
:100D40001861C4F20F01086840F0010008604EF21B
:100D50000861C4F20F01086840F001000860FFE775
:100D60004EF60820C4F20F000068C00708B9FFE77C
:100D7000F6E740F26200C2F2000000F0BBFC4CF269
:100D80003001C4F20001086820F0010008604CF254
:100D90002402C4F2000240F2451010604CF2280216
:100DA000C4F20002212010604CF22C02C4F20002B6
:100DB000602010604CF24402C4F2000240F2FF7066
:100DC00010604CF23802C4F200020020106044F2BD
:100DD0002043C4F20003186840F00300186044F296
:100DE0001C53C4F20003186840F00300186044F27A
:100DF0002C53C4F2000318684FF0110C6CF3070079
:100E0000186044F22853C4F20003186820F003006D
:100E10001860106840F0100010604EF20442CEF2EC
:100E20000002106820F4604010604EF20012CEF212
:100E30000002106840F020001060086840F20132A3
:100E40001043086080BD000080B50D2000F004F85C
:100E50000A2000F001F880BD81B08DF80300FFE7A3
:100E60004CF21800C4F2000000688006002801D58A
:100E7000FFE7F5E79DF803004CF20001C4F2000122
:100E8000086001B07047000080B582B00190FFE7B4
:100E90000198007840B1FFE701980078FFF7DCFF88
:100EA000019801300190F3E702B080BD80B582B0B7
:100EB000019001980A2816D3FFE701984CF6CD411E
:100EC000CCF6CC410091A0FB0110C008FFF7EEFF6B
:100ED00000990198A0FB0121C90801EB8101A0EB59
:100EE00041000190FFE701983030C0B2FFF7B4FF36
:100EF00002B080BD80B53C20C4F201000068C0068D
:100F000000281BD5FFE7FFE71820C4F201000068A6
:100F1000C00600280CD4FFE70020C4F201000068DE
:100F2000C1B240F2A600C2F2000000F04DFCEBE7B7
:100F30004421C4F2010110200860FFE73C20C4F204
:100F4000010000688006002806D5FFE74421C4F2AE
:100F5000010120200860FFE780BD000080B582B05D
:100F6000FFE740F2A600C2F200000DF1070100F019
:100F7000FFFB08B9FFE7F4E79DF8070002B080BD6A
:100F800080B54EF21861C4F20F01086840F01000FD
:100F900008604EF20861C4F20F01086840F00400D6
:100FA0000860FFE74EF60820C4F20F000068400713
:100FB000002801D4FFE7F5E740F2A600C2F20000E6
:100FC00000F0F8FB46F22051C4F2000144F24B302D
:100FD000C4F64F40086046F22451C4F2000108688C
:100FE00040F0300008603021C4F20101086820F0B0
:100FF000010008602422C4F20102D92010602820D8
:10100000C4F20100012303602C22C4F2010260201B
:1010100010604422C4F2010240F2FF7010603822D6
:10102000C4F201020020106046F2204CC4F2000C11
:10103000DCF8000040F03000CCF8000046F21C5C08
:10104000C4F2000CDCF8000040F03000CCF80000E6
:1010500046F22C5CC4F2000CDCF800004FF0110EDC
:101060006EF31740CCF8000046F2285CC4F2000C86
:10107000DCF8000020F03000CCF80000106840F0F0
:10108000100010604EF23C42CEF20002106863F392
:101090005F7010604EF20412CEF20002106840F051
:1010A00080501060086840F201321043086080BD33
:1010B00081B08DF80300FFE71820C4F2010000683A
:1010C0008006002801D5FFE7F6E79DF80300002120
:1010D000C4F20101086001B07047000080B586B01D
:1010E00000200590FFF76EFD6420FFF777F9FFE71A
:1010F00040F26000C2F2000000780146039104282B
:1011000000F2C8820399DFE811F005006C000501C8
:10111000B201B902FFF798FE41F6E110C0F20000FB
:10112000FFF7B2FE41F6A810C0F20000FFF7ACFED8
:1011300041F61E40C0F20000FFF7A6FE41F6053062
:10114000C0F20000FFF7A0FE41F6E520C0F200006B
:10115000FFF79AFE41F62330C0F20000FFF794FE3D
:1011600041F61F20C0F20000FFF78EFE41F6480056
:10117000C0F20000FFF788FEFFF766FEFFF780FD74
:10118000014640F2EA00C2F20000029001700078CD
:10119000FFF762FE02980078312807D1FFE740F29E
:1011A0006001C2F200010120087019E040F2EA007B
:1011B000C2F200000078322807D1FFE740F2600158
:1011C000C2F200010220087009E040F2EA00C2F217
:1011D00000000078332801D1FFE7FFE7FFE7FFE7D2
:1011E00058E2FFF731FE41F61040C0F20000FFF771
:1011F0004BFE41F61800C0F20000FFF745FE41F635
:101200007F10C0F20000FFF73FFE41F6AC00C0F2D5
:101210000000FFF739FE41F60640C0F20000FFF77C
:1012200033FEFFF711FEFFF72BFD014640F2EA0007
:10123000C2F20000019001700078FFF70DFEFFF789
:1012400003FE0198007831282FD1FFE7FFF7FCFD5E
:1012500041F6B010C0F20000FFF716FE41F65E0046
:10126000C0F20000FFF710FEFFF7EEFDFFF708FDEC
:10127000014640F2EA00C2F2000001700078FFF778
:10128000EBFDFFF7FDFC8DF81300FFF7DDFD9DF88A
:1012900013000D2808D1FFE740F2EA00C2F2000077
:1012A0000078FFF7BBF9FFE733E040F2EA00C2F253
:1012B00000000078322813D1FFE7FFF7C5FD41F6A3
:1012C000B330C0F20000FFF7DFFDFFF7EBFC8DF855
:1012D0001200FFF7B9FD9DF81200FFF7D1F817E0F3
:1012E00040F2EA00C2F20000007833280FD1FFE795
:1012F00041F6DA00C0F20000FFF7C6FD40F26001DF
:10130000C2F2000100200870FFF79EFDFFE7FFE733
:10131000FFE7BFE1FFF798FD41F64220C0F2000071
:10132000FFF7B2FD41F68520C0F20000FFF7ACFDEB
:1013300041F68430C0F20000FFF7A6FD41F62D1003
:10134000C0F20000FFF7A0FDFFF77EFD41F6EC00C4
:10135000C0F20000FFF798FD41F61950C0F20000FE
:10136000FFF792FD40F2EB00C2F20000007838B9BE
:10137000FFE741F6DE20C0F20000FFF785FD6FE0D9
:1013800040F2EB00C2F200000078012807D1FFE72D
:1013900041F61920C0F20000FFF776FD5FE040F251
:1013A000EB00C2F200000078022807D1FFE741F607
:1013B0007C30C0F20000FFF767FD4FE040F2EB0029
:1013C000C2F200000078032807D1FFE741F6C620EB
:1013D000C0F20000FFF758FD3FE040F2EB00C2F220
:1013E00000000078042807D1FFE741F63B40C0F237
:1013F0000000FFF749FD2FE040F2EB00C2F20000D1
:101400000078052807D1FFE741F66430C0F20000FC
:10141000FFF73AFD1FE040F2EB00C2F20000007857
:10142000062807D1FFE741F67C20C0F20000FFF755
:101430002BFD0FE040F2EB00C2F20000007807281D
:1014400007D1FFE741F6AD20C0F20000FFF71CFD19
:10145000FFE7FFE7FFE7FFE7FFE7FFE7FFE7FFE75C
:1014600040F26001C2F200010320087012E140F274
:10147000EB00C2F200000078C0B9FFE740F2610063
:10148000C2F200000078C00750B1FFE740F26101EE
:10149000C2F20001002008706420FFF709FEFFE798
:1014A000002210461146FFF7F7FAE6E040F2EB00A3
:1014B000C2F200000078012818D1FFE740F2610075
:1014C000C2F200000078C00750B1FFE740F26101AE
:1014D000C2F20001002008707220FFF7E9FDFFE76B
:1014E000642000221146FFF7D7FAC5E040F2EB0076
:1014F000C2F200000078022818D1FFE740F2610034
:10150000C2F200000078C00750B1FFE740F261016D
:10151000C2F20001002008706720FFF7C9FDFFE755
:10152000002164220846FFF7B7FAA4E040F2EB007E
:10153000C2F200000078032818D1FFE740F26100F2
:10154000C2F200000078C00750B1FFE740F261012D
:10155000C2F20001002008706220FFF7A9FDFFE73A
:10156000642100221046FFF797FA83E040F2EB0077
:10157000C2F200000078042818D1FFE740F26100B1
:10158000C2F200000078C00750B1FFE740F26101ED
:10159000C2F20001002008707920FFF789FDFFE703
:1015A000002164221046FFF777FA62E040F2EB0078
:1015B000C2F200000078052818D1FFE740F2610070
:1015C000C2F200000078C00750B1FFE740F26101AD
:1015D000C2F20001002008706320FFF769FDFFE7F9
:1015E000002064221146FFF757FA41E040F2EB0079
:1015F000C2F200000078062818D1FFE740F261002F
:10160000C2F200000078C00750B1FFE740F261016C
:10161000C2F20001002008707020FFF749FDFFE7CB
:10162000642100220846FFF737FA20E040F2EB0081
:10163000C2F200000078072818D1FFE740F26100ED
:10164000C2F200000078C00750B1FFE740F261012C
:10165000C2F20001002008707720FFF729FDFFE7A4
:10166000642210461146FFF717FAFFE7FFE7FFE78E
:10167000FFE7FFE7FFE7FFE7FFE70BE0FFF76EFCA1
:10168000014640F2ED00C2F2000001700078FFF761
:1016900079F8FFE72CE5000081B000900098008801
:1016A00000994988401AB0FA80F0400901B07047AB
:1016B00080B584B0029001910298FFF7EDFF20B150
:1016C000FFE700208DF80F0010E0029841880844E1
:1016D00000790199087002984088013000F03F00BD
:1016E0000299488001208DF80F00FFE79DF80F0058
:1016F00004B080BD81B0009000990020088000995E
:10170000488001B07047000083B001908DF803104D
:1017100001980088013000F03F00ADF80000BDF8EE
:10172000000001994988884204D1FFE700208DF824
:101730000B000DE09DF8030001990A88114408711F
:10174000BDF800000199088001208DF80B00FFE72B
:101750009DF80B0003B0704781B00090009800889E
:1017600000994988401AB0FA80F0400901B07047EA
:1017700080B584B0029001910298FFF7EDFF20B18F
:10178000FFE700208DF80F0010E002984188084420
:1017900000790199087002984088013000F03F00FC
:1017A0000299488001208DF80F00FFE79DF80F0097
:1017B00004B080BD81B0009000990020088000999D
:1017C000488001B07047000083B001908DF803108D
:1017D00001980088013000F03F00ADF80000BDF82E
:1017E000000001994988884204D1FFE700208DF864
:1017F0000B000DE09DF8030001990A88114408715F
:10180000BDF800000199088001208DF80B00FFE76A
:101810009DF80B0003B07047506C656173652073D1
:10182000656C65637420616E206F7074696F6E20E3
:1018300066726F6D2074686520666F6C6C6F776977
:101840006E67206C6973742028656E746572203130
:10185000206F722032206F722033290D0A00642815
:101860006461726B292C207228726564292C2067B0
:1018700028677265656E292C206228626C7565295F
:101880002C20792879656C6C6F77292C206328636C
:1018900079616E292C207028707572706C65292C06
:1018A0002077287768697465290D0A00323A204349
:1018B00068616E6765207468652062726967687424
:1018C0006E657373206F662063757272656E742027
:1018D0004C45442873292E0D0A0045786974696EB9
:1018E000672E2E2E2E2E2E2E2E0D0A004F6E636585
:1018F000206120636F6C6F722069732073656C6563
:10190000637465642C207072657373207377312063
:10191000746F2073656E642074686520636F6C6FEC
:101920007220746F204D4355322E0D0A0074686585
:1019300020666F6C6C6F77696E6720636F6C6F7277
:1019400020776865656C3A204461726B2C20526583
:10195000642C20477265656E2C20426C75652C20C6
:1019600059656C6C6F772C204379616E2C20507513
:1019700072706C652C2057686974652E0D0A0031F1
:101980003A2043686F6F736520616E64204C454454
:1019900020436F6C6F722E0D0A0062726967687463
:1019A0006E6573732E0D0A004D435520310D0A00EC
:1019B000506C656173652053656C656374206120AC
:1019C000636F6C6F722066726F6D2074686520663D
:1019D0006F6C6C6F77696E67206C6973743A0D0A6F
:1019E0000057656C636F6D6520746F2043454353EA
:1019F000203434372050726F6A6563742032202D92
:101A000020554152540D0A00436F6C6F7220636879
:101A1000616E67656420746F205265640D0A005022
:101A20006C656173652063686F6F736520636F6DAC
:101A30006D756E69636174696F6E206D6F64650D9D
:101A40000A004D6F64652032204D4355313A2050D5
:101A500072657373205E20746F20657869742074DA
:101A6000686973206D6F64650D0A00436F6C6F7257
:101A7000206368616E67656420746F2050757270B2
:101A80006C650D0A00496E20636F6C6F7220576899
:101A900065656C2053746174650D0A00436F6C6F4B
:101AA00072206368616E67656420746F205768698F
:101AB00074650D0A00436F6C6F72206368616E6716
:101AC000656420746F20426C75650D0A00436F6C6D
:101AD0006F72206368616E67656420746F20446173
:101AE000726B0D0A00323A204D435531203C2D2DAA
:101AF0003E204D43553220436F6C6F72205768650E
:101B0000656C0D0A00313A205043203C2D2D3E20BB
:101B10004D435531204C454420436F6E74726F6CB9
:101B20000D0A00333A20504331203C2D2D3E204DEC
:101B3000435531203C2D2D3E204D435532203C2D28
:101B40002D3E20504332204368617420526F6F6DE8
:101B50000D0A00436F6C6F72206368616E67656485
:101B600020746F204379616E0D0A00436F6C6F72B1
:101B7000206368616E67656420746F2047726565D5
:101B80006E0D0A00506C6561736520707265737329
:101B90002073773220746F20676F207468726F75BE
:101BA00067682074686520636F6C6F727320696E5C
:101BB0000D0A00506C6561736520656E7465722056
:101BC0006120646563696D616C206E756D6265721C
:101BD0002066726F6D203020746F203130302066A7
:101BE0006F6C6C6F77656420627920612072657418
:101BF00075726E0D0A00496E76616C696420636FC0
:101C00006C6F720D0A00333A20457869740D0A0032
:101C10004D6F64652031204D656E750D0A004D6174
:101C2000696E204D656E750D0A00436F6C6F7220F2
:101C30006368616E67656420746F2059656C6C6FB2
:101C4000770D0A00526564204C6564206973206436
:101C50006973706C617965642061742000507572DD
:101C6000706C65204C656420697320646973706CC6
:101C70006179656420617420005768697465204C3F
:101C8000656420697320646973706C617965642090
:101C900061742000426C7565204C65642069732076
:101CA000646973706C6179656420617420004461BB
:101CB000726B204C656420697320646973706C6179
:101CC00079656420617420004379616E204C6564FD
:101CD00020697320646973706C6179656420617434
:101CE0002000477265656E204C656420697320642E
:101CF0006973706C61796564206174200059656C4A
:101D00006C6F77204C656420697320646973706C14
:101D100061796564206174200043757272656E7428
:101D200020436F6C6F723A00381D000000000020E5
:081D3000F0040000EC020000C9
:040000050000028570
:00000001FF
