:020000040000FA
:10000000200500206D020000710200007302000054
:100010007502000077020000790200000000000075
:100020000000000000000000000000007B02000053
:100030007D020000000000007F020000810200003D
:10004000830200008302000083020000830200009C
:10005000830200007D0E0000830200008302000086
:10006000830200008302000083020000830200007C
:10007000830200008302000083020000830200006C
:10008000830200008302000083020000830200005C
:10009000830200008302000083020000830200004C
:1000A000830200008302000083020000830200003C
:1000B00083020000830200008D0400008302000020
:1000C000830200008302000083020000830200001C
:1000D000830200008302000083020000830200000C
:1000E00083020000830200008302000083020000FC
:1000F00083020000830200008302000083020000EC
:1001000083020000830200008302000083020000DB
:1001100083020000830200008302000083020000CB
:1001200083020000830200008302000083020000BB
:10013000FD11000083020000830200008302000022
:1001400000000000000000000000000000000000AF
:10015000830200008302000083020000830200008B
:10016000000000000000000000000000000000008F
:10017000000000000000000000000000000000007F
:10018000000000000000000000000000000000006F
:10019000000000000000000000000000000000005F
:1001A000000000000000000000000000000000004F
:1001B000830200008302000083020000830200002B
:1001C000830200008302000083020000830200001B
:1001D000830200008302000083020000830200000B
:1001E00083020000830200008302000083020000FB
:1001F00083020000830200008302000083020000EB
:10020000830200008302000083020000000000005F
:1002100083020000830200008302000083020000CA
:1002200083020000830200008302000083020000BA
:1002300083020000830200008302000083020000AA
:10024000830200008302000083020000830200009A
:10025000830200008302000083020000830200008A
:1002600083020000830200008302000000F00AB84D
:10027000FEE7FEE7FEE7FEE7FEE7FEE7FEE7FEE756
:10028000FEE7FEE700F002F800F042F814A696E858
:10029000000CB244B344DA4501D100F039F8BAE8B1
:1002A0000F000FA696E83000A5EB040504EB060747
:1002B000AAEB0704A7F101074FEA15154FEA34141A
:1002C000A4F10104AC4201D300F022F813F0010FB5
:1002D00018BFFB1A43F0010300F001F8DBE71847F1
:1002E000781F0000881F00007047000000230024D2
:1002F00000250026103A28BF78C1FBD8520728BF36
:1003000030C148BF0B6070471FB51FBD10B510BD91
:1003100000F029F81146FFF7F7FF01F093F800F01D
:1003200047F803B4FFF7F2FF03BC00F04FF80000FA
:1003300072B6704762B67047EFF3108072B67047BE
:1003400080F31088704730BF704702480249014A65
:10035000024B7047200100202005002020010020D2
:10036000704770477047754600F02CF8AE460500A0
:100370006946534620F00700854618B020B5FFF7C0
:10038000E4FFBDE820404FF000064FF000074FF0BB
:1003900000084FF0000BAC46ACE8C009ACE8C0095F
:1003A000ACE8C009ACE8C00921F007018D467047F0
:1003B00010B50446AFF300802046BDE81040FFF7BB
:1003C000B0BF00000048704700000020014918201D
:1003D000ABBEFEE7260002007047000082B08DF839
:1003E00006009DF8060062380146009117282ED8B5
:1003F0000099DFE801F018200C2C2C142C2C2C2C4C
:100400002C2C2C2C242C102C2C2C2C282C1C00209C
:100410008DF807001FE001208DF807001BE0022087
:100420008DF8070017E003208DF8070013E0042083
:100430008DF807000FE005208DF807000BE006207F
:100440008DF8070007E007208DF8070003E0002083
:100450008DF80700FFE79DF8070002B07047000025
:1004600082B00190FFE70198411E019158B1FFE76A
:1004700043F2D4000090FFE70098411E009108B1BC
:10048000FFE7F9E7EFE702B07047000080B582B000
:1004900045F21840C4F2020000680190019845F24C
:1004A0001C41C4F2020108609DF80400C006002847
:1004B0002BD5FFE70F20FFF7D3FF40F26000C2F219
:1004C00000000078032807D1FFE740F28E01C2F256
:1004D00000010120087017E040F26000C2F2000045
:1004E0000078062808D0FFE740F26000C2F2000062
:1004F0000078072807D1FFE740F26101C2F200014E
:1005000001200870FFE7FFE7FFE79DF80400C00740
:1005100028B3FFE70F20FFF7A3FF40F26000C2F20D
:1005200000000078032819D1FFE740F21A10C2F248
:1005300000000178013101700078082807DBFFE72F
:1005400040F21A11C2F2000100200870FFE740F2E9
:100550001911C2F2000101200870FFE7FFE702B0A5
:1005600080BD000080B582B08DF8070040F21B10FE
:10057000C2F20000007801460091072800F2BE8018
:100580000099DFE801F0041A31485F768DA400225B
:100590001046114600F0C8FB42F2DB10C0F200002A
:1005A00000F0ECFD9DF8070000F0FAFD41F6166042
:1005B000C0F2000000F0E2FDA0E09DF8070000227C
:1005C000114600F0B1FB42F27110C0F2000000F0E1
:1005D000D5FD9DF8070000F0E3FD41F61660C0F27E
:1005E000000000F0CBFD89E09DF8072000210846BF
:1005F00000F09AFB42F20F20C0F2000000F0BEFDB6
:100600009DF8070000F0CCFD41F61660C0F2000036
:1006100000F0B4FD72E09DF807100022104600F0D3
:1006200083FB42F2C110C0F2000000F0A7FD9DF86C
:10063000070000F0B5FD41F61660C0F2000000F0C2
:100640009DFD5BE09DF807200021104600F06CFB4B
:1006500042F22A20C0F2000000F090FD9DF8070051
:1006600000F09EFD41F61660C0F2000000F086FD2D
:1006700044E09DF807200020114600F055FB42F2AF
:10068000F510C0F2000000F079FD9DF8070000F0C1
:1006900087FD41F61660C0F2000000F06FFD2DE00E
:1006A0009DF807100022084600F03EFB42F28A1037
:1006B000C0F2000000F062FD9DF8070000F070FD40
:1006C00041F61660C0F2000000F058FD16E09DF8FB
:1006D00007201046114600F027FB42F2A610C0F298
:1006E000000000F04BFD9DF8070000F059FD41F6B9
:1006F0001660C0F2000000F041FDFFE702B080BDCF
:1007000080B582B08DF807009DF807006238014679
:100710000091172800F29E800099DFE801F0416502
:100720000C9B9B2F9B9B9B9B9B9B9B9B779B1D9BB6
:100730009B9B9B899B5340F21B10C2F2000000223E
:1007400002701046114600F0EFFA42F25C00C0F26F
:10075000000000F013FD84E040F21B11C2F2000122
:100760000120087064200022114600F0DDFA42F2F8
:100770001600C0F2000000F001FD72E040F21B1113
:10078000C2F200010220087000216422084600F035
:10079000CBFA42F27E00C0F2000000F0EFFC60E015
:1007A00040F21B11C2F200010320087064210022F4
:1007B000104600F0B9FA42F24B00C0F2000000F01F
:1007C000DDFC4EE040F21B11C2F200010420087073
:1007D00000216422104600F0A7FA42F29000C0F215
:1007E000000000F0CBFC3CE040F21B11C2F2000123
:1007F0000520087000206422114600F095FA42F2AC
:100800006D00C0F2000000F0B9FC2AE040F21B11BC
:10081000C2F200010620087064210022084600F0A0
:1008200083FA42F22600C0F2000000F0A7FC18E0B4
:1008300040F21B11C2F2000107200870642210462A
:10084000114600F071FA42F23900C0F2000000F0E7
:1008500095FC06E042F21010C0F2000000F08EFCA1
:10086000FFE702B080BD000080B582B08DF80700C0
:100870009DF8070062380146009117283ED800997C
:10088000DFE801F01E2A0C3C3C183C3C3C3C3C3C64
:100890003C3C303C123C3C3C3C363C240022104664
:1008A000114600F041FA29E064200022114600F0D0
:1008B0003BFA23E000216422084600F035FA1DE0EF
:1008C00064210022104600F02FFA17E00021642274
:1008D000104600F029FA11E000206422114600F0D1
:1008E00023FA0BE064210022084600F01DFA05E01F
:1008F00064221046114600F017FAFFE702B080BDEF
:1009000080B584B000F070FC002873D0FFE700F0E1
:10091000A9FC8DF80F009DF80F005E280ED1FFE7AF
:1009200000F00CFC40F26001C2F2000100200870EF
:1009300040F27701C2F2000108705BE09DF80F0001
:100940000D2819D0FFE740F27700C2F200000078CE
:10095000132810DCFFE79DF80F0040F27701C2F288
:1009600000010B7840F26202C2F20002D054087813
:1009700001300870FFE73CE040F27700C2F200006F
:100980000190027840F26201C2F200010091002061
:100990000290885400F0D2FB42F24B20C0F20000DB
:1009A00000F0ECFB42F24D10C0F2000000F0E6FB5C
:1009B000009800F0E3FB42F24620C0F2000000F095
:1009C000DDFB00F0BBFB01990298087040F260016A
:1009D000C2F200010620087042F2A300C0F200003B
:1009E00000F0CCFB41F62E60C0F2000000F0C6FB28
:1009F000FFE7FFE704B080BD80B584B000F034FAB3
:100A0000002851D0FFE700F0B5FA8DF80F0042F250
:100A10005120C0F2000000F0B1FB9DF80F0000F083
:100A200095FB42F24620C0F2000000F0A7FB9DF8C3
:100A30000F000D2819D0FFE740F28D00C2F2000030
:100A40000078132810DCFFE79DF80F0040F28D01BD
:100A5000C2F200010B7840F27802C2F20002D054D8
:100A6000087801300870FFE71DE040F28D00C2F207
:100A700000000190027840F27800C2F200000021EC
:100A80000291815400F0B0FC0D2000F097FC00F0C2
:100A900055FB01990298087040F26001C2F2000112
:100AA00007200870FFE7FFE704B080BD81B04EF279
:100AB0007001C4F20F010091086840F00040086026
:100AC000086840F4006008604EF26002C4F20F0251
:100AD000106820F4F8601060106800F5A8601060DD
:100AE000086820F07000086008680860086820F452
:100AF00000500860086840F08040086008680722DD
:100B000062F39C500860FFE74EF25000C4F20F0001
:100B100000684006002801D4FFE7F5E74EF27001B7
:100B2000C4F20F01086820F40060086001B070474B
:100B300010B54EF24061C4F20F01086840F00200A7
:100B400008604EF20861C4F20F01086840F020000E
:100B50000860FFE74EF60820C4F20F000068800628
:100B6000002801D4FFE7F5E745F22051C4F2020165
:100B700044F24B30C4F64F40086045F22451C4F2B1
:100B80000201086840F01F00086045F2004CC4F202
:100B9000020CDCF8000040F00E00CCF8000045F23A
:100BA0001C53C4F20203186840F00E00186045F2AE
:100BB0002852C4F20202106820F00E00106045F2C4
:100BC0002041C4F20201086840F00E00086045F2BE
:100BD0002C5EC4F2020EDEF8000040F2555464F3BD
:100BE0000F10CEF80000DCF8000020F01100CCF867
:100BF0000000186840F011001860106820F0110023
:100C00001060086820F01100086045F21051C4F22D
:100C10000201086840F01100086045F20441C4F286
:100C20000201086820F01100086045F20841C4F292
:100C30000201086820F01100086045F20C41C4F27E
:100C40000201086820F01100086045F21C41C4F25E
:100C500002011120086045F21041C4F20201086847
:100C600040F0110008604EF21C41CEF2000108680D
:100C7000402262F3174008604EF20011CEF20001EC
:100C8000086840F08040086049F2C00CC4F2020CD1
:100C90000020CCF8000049F2E401C4F2020140F661
:100CA00008430B6049F2D001C4F202014CF24F320A
:100CB0000A6049F2DC01C4F202010860DCF80010AD
:100CC00041F00101CCF8001049F20011C4F2020118
:100CD000086049F2201EC4F2020E4FF0C80CCEF894
:100CE00000C049F2241CC4F2020CCCF8003049F2D6
:100CF0001013C4F202031A6049F21812C4F202027D
:100D0000106049F21C12C4F202021060086840F040
:100D10000100086049F20801C4F20201086840F0CD
:100D2000E000086010BD000085B08DF813008DF85C
:100D300012108DF811204CF2503003909DF81300E2
:100D400018B9FFE70020029020E09DF81300642806
:100D500004D1FFE74CF24E30029016E003989DF864
:100D60001310484348F21F51C5F2EB11A0FB0110CC
:100D70004009029002984CF24F31884204D3FFE7B9
:100D80004CF24E300290FFE7FFE7FFE79DF81200BC
:100D900018B9FFE70020019020E09DF812006428B8
:100DA00004D1FFE74CF24E30019016E003989DF815
:100DB0001210484348F21F51C5F2EB11A0FB01107D
:100DC0004009019001984CF24F31884204D3FFE76B
:100DD0004CF24E300190FFE7FFE7FFE79DF811006E
:100DE00018B9FFE70020009020E09DF8110064286A
:100DF00004D1FFE74CF24E30009016E003989DF8C6
:100E00001110484348F21F51C5F2EB11A0FB01102D
:100E10004009009000984CF24F31884204D3FFE71C
:100E20004CF24E300090FFE7FFE7FFE7029849F2EF
:100E3000DC01C4F202010860019849F21811C4F201
:100E400002010860009849F21C11C4F20201086016
:100E500005B0704780B5FFF729FEFFF769FE00F087
:100E6000E7F800F011FA80BD80B540F29000C2F2C0
:100E7000000000F023FE80F0010080BD80B582B04C
:100E80004CF23C00C4F200000068C00600285ED5A9
:100E9000FFE7FFE74CF21800C4F200000068C0064C
:100EA00000284DD4FFE74CF20000C4F200000068B7
:100EB0008DF807009DF807005E2837D1FFE740F264
:100EC0006000C2F200000078022810D0FFE740F274
:100ED0006000C2F200000078032808D0FFE740F26B
:100EE0006000C2F20000007804281FD1FFE740F242
:100EF0008E00C2F2000000220092027040F219102F
:100F0000C2F20000027040F21A10C2F20000027039
:100F100010461146FFF708FF5E2000F04FFA0098D8
:100F200040F26001C2F20001087008E09DF807106D
:100F300040F29000C2F2000000F0F8FDFFE7A9E7E0
:100F40004CF24401C4F2000110200860FFE74CF2AB
:100F50003C00C4F2000000688006002807D5FFE7C7
:100F60004CF24401C4F2000120200860FFE702B007
:100F700080BD000080B582B0FFE740F29000C2F271
:100F800000000DF1070100F0A5FD08B9FFE7F4E747
:100F90009DF8070002B080BD80B584B000200390AA
:100FA0000290FFF7E7FF8DF80700FFE79DF80700C5
:100FB0000D283AD0FFE79DF80700302816DBFFE741
:100FC0009DF80700392811DCFFE7039800EB80014A
:100FD0009DF8070000EB4100303803900298013083
:100FE00002909DF8070000F0B1F819E09DF80700A5
:100FF000082814D1FFE7029888B1FFE703984CF660
:10100000CD41CCF6CC41A0FB0110C0080390029862
:10101000013802909DF8070000F098F8FFE7FFE71D
:10102000FFF7A8FF8DF80700C0E7039804B080BD64
:1010300080B54EF21861C4F20F01086840F001005B
:1010400008604EF20861C4F20F01086840F0010028
:101050000860FFE74EF60820C4F20F000068C007E2
:1010600008B9FFE7F6E740F29000C2F2000000F096
:1010700053FD4CF23001C4F20001086820F0010079
:1010800008604CF22402C4F2000240F245101060E5
:101090004CF22802C4F20002212010604CF22C0213
:1010A000C4F20002602010604CF24402C4F200025C
:1010B00040F2FF7010604CF23802C4F200020020CF
:1010C000106044F22043C4F20003186840F00300AB
:1010D000186044F21C53C4F20003186840F0030087
:1010E000186044F22C53C4F2000318684FF0110C3E
:1010F0006CF30700186044F22853C4F20003186828
:1011000020F003001860106840F0100010604EF2EC
:101110000442CEF20002106820F4604010604EF2EB
:101120000012CEF20002106840F020001060086843
:1011300040F201321043086080BD000080B50D20F0
:1011400000F004F80A2000F001F880BD81B08DF8AD
:101150000300FFE74CF21800C4F2000000688006AC
:10116000002801D5FFE7F5E79DF803004CF20001E8
:10117000C4F20001086001B07047000080B582B081
:101180000190FFE70198007840B1FFE701980078EF
:10119000FFF7DCFF019801300190F3E702B080BD5A
:1011A00080B582B0019001980A2816D3FFE7019814
:1011B0004CF6CD41CCF6CC410091A0FB0110C0080B
:1011C000FFF7EEFF00990198A0FB0121C90801EB90
:1011D0008101A0EB41000190FFE701983030C0B2DF
:1011E000FFF7B4FF02B080BD80B540F2D400C2F278
:1011F000000000F0C3FC80F0010080BD80B53C2001
:10120000C4F201000068C00600281BD5FFE7FFE715
:101210001820C4F201000068C00600280CD4FFE7C3
:101220000020C4F201000068C1B240F2D400C2F252
:10123000000000F0DBFCEBE74421C4F201011020C8
:101240000860FFE73C20C4F2010000688006002827
:1012500006D5FFE74421C4F2010120200860FFE722
:1012600080BD000080B582B0FFE740F2D400C2F23A
:1012700000000DF1070100F08DFC08B9FFE7F4E76D
:101280009DF8070002B080BD80B54EF21861C4F22F
:101290000F01086840F0100008604EF20861C4F2C7
:1012A0000F01086840F004000860FFE74EF60820D0
:1012B000C4F20F00006800F00400042801D0FFE72A
:1012C000F4E740F2D400C2F2000000F085FC46F2E0
:1012D0002051C4F2000144F24B30C4F64F40086084
:1012E00046F22451C4F20001086840F03000086062
:1012F0003021C4F20101086820F0010008602422B6
:10130000C4F20102D92010602820C4F20100012398
:1013100003602C22C4F20102602010604422C4F257
:10132000010240F2FF7010603822C4F20102002076
:10133000106046F2204CC4F2000CDCF8000040F0D3
:101340003000CCF8000046F21C5CC4F2000CDCF863
:10135000000040F03000CCF8000046F22C5CC4F2F3
:10136000000CDCF800004FF0110E6EF31740CCF8C3
:10137000000046F2285CC4F2000CDCF8000020F00B
:101380003000CCF80000106840F0100010604EF201
:101390003C42CEF20002106863F35F7010604EF2C0
:1013A0000412CEF20002106840F08050106008680D
:1013B00040F201321043086080BD000081B08DF81A
:1013C0000300FFE71820C4F201000068800600282F
:1013D00001D5FFE7F6E79DF803000021C4F2010103
:1013E000086001B07047000080B582B00190FFE74F
:1013F0000198007840B1FFE701980078FFF7DEFF21
:10140000019801300190F3E702B080BD83B08DF800
:101410000B009DF80B00082804DBFFE700208DF887
:101420000B00FFE746F27930C7F27070019047F287
:101430006420C6F2672000909DF80B106846405C5F
:1014400003B0704780B58AB000200990FFF702FD15
:101450006420FFF705F8FFE740F26000C2F20000E9
:10146000007801460791072800F226830799DFE8F4
:1014700011F0080075000E015D01F8017502AB0264
:10148000FE02FFF75BFE41F67C60C0F20000FFF752
:1014900075FE41F62660C0F20000FFF76FFE42F2D3
:1014A0003810C0F20000FFF769FE41F67170C0F21B
:1014B0000000FFF763FE41F65170C0F20000FFF735
:1014C0005DFE41F68F70C0F20000FFF757FE41F657
:1014D000D760C0F20000FFF751FE41F66C40C0F249
:1014E0000000FFF74BFEFFF729FEFFF743FD014623
:1014F00040F21810C2F20000069001700078FFF769
:1015000025FE06980078312807D1FFE740F26001F8
:10151000C2F20001012008701FE040F21810C2F270
:1015200000000078322807D1FFE740F26001C2F2E4
:101530000001022008700FE040F21810C2F2000013
:101540000078332807D1FFE740F26001C2F20001C2
:1015500005200870FFE7FFE7FFE7ADE2FFF7EEFDCC
:1015600042F22A10C0F20000FFF708FE41F63C40AC
:10157000C0F20000FFF702FE41F6FB50C0F200008F
:10158000FFF7FCFD41F6FF40C0F20000FFF7F6FD5B
:1015900042F22010C0F20000FFF7F0FDFFF7CEFD91
:1015A000FFF7E8FC014640F21810C2F20000059077
:1015B00001700078FFF7CAFDFFF7C0FD05980078BD
:1015C00031282FD1FFE7FFF7B9FD41F64B60C0F29C
:1015D0000000FFF7D3FD41F68240C0F20000FFF7A4
:1015E000CDFDFFF7ABFDFFF7C5FC014640F218103B
:1015F000C2F2000001700078FFF7A8FDFFF7BAFC07
:101600008DF82300FFF79AFD9DF823000D2808D1DF
:10161000FFE740F21810C2F200000078FFF770F800
:10162000FFE733E040F21810C2F2000000783228E1
:1016300013D1FFE7FFF782FD42F2CD00C0F20000B8
:10164000FFF79CFDFFF7A8FC8DF82200FFF776FD61
:101650009DF82200FEF786FF17E040F21810C2F254
:101660000000007833280FD1FFE741F65450C0F254
:101670000000FFF783FD40F26001C2F2000100208C
:101680000870FFF75BFDFFE7FFE7FFE714E240F2BA
:101690008E01C2F200010020087040F21911C2F25E
:1016A0000001087040F21A11C2F200010870FFF741
:1016B00045FD41F6FA60C0F20000FFF75FFD41F61C
:1016C0008F50C0F20000FFF759FD41F6E770C0F2FD
:1016D0000000FFF753FD41F6D040C0F20000FFF7D5
:1016E0004DFD41F6A750C0F20000FFF747FD41F65F
:1016F000A960C0F20000FFF741FD41F67A50C0F248
:101700000000FFF73BFD41F63B70C0F20000FFF721
:1017100035FD6420FFF7A8F83220FFF74FFE40F2B6
:101720006001C2F2000103200870C5E140F2191007
:10173000C2F200000078C007002800F06980FFE7CF
:1017400040F21911C2F200010020087040F21A1094
:10175000C2F200000078FFF759FE8DF821009DF8D5
:101760002100FFF781F842F26110C0F20000FFF79C
:1017700005FD9DF82100623801460491172846D8DE
:101780000499DFE801F0212F0C44441A44444444F6
:1017900044444444364413444444443D442841F6BC
:1017A0004A70C0F20000FFF7E9FC30E041F6A360A8
:1017B000C0F20000FFF7E2FC29E041F6DF70C0F262
:1017C0000000FFF7DBFC22E041F63470C0F20000BD
:1017D000FFF7D4FC1BE042F24410C0F20000FFF718
:1017E000CDFC14E041F6D870C0F20000FFF7C6FC53
:1017F0000DE041F62370C0F20000FFF7BFFC06E0E9
:1018000041F62C70C0F20000FFF7B8FCFFE7FFE7DD
:1018100040F28E00C2F200000078C00700B3FFE77C
:1018200040F28E01C2F200010020087040F21A104E
:10183000C2F200000078FFF7E9FD8DF820009DF866
:101840002000FFF7BBFD41F62D50C0F20000FFF76E
:1018500095FC40F26001C2F2000104200870FFE72D
:101860002AE1FFF7C1FC002800F07780FFE7FFF7CF
:10187000F9FC014640F21C10C2F200000290017017
:101880000078FEF7F1FF02980078FEF7A7FD40F21E
:101890001A11C2F20001087042F26110C0F2000099
:1018A000FFF76CFC02980078623801460391172814
:1018B00046D80399DFE801F0212F0C44441A444430
:1018C000444444444444364413444444443D44283A
:1018D00041F64A70C0F20000FFF750FC30E041F6DC
:1018E000A360C0F20000FFF749FC29E041F6DF7079
:1018F000C0F20000FFF742FC22E041F63470C0F273
:101900000000FFF73BFC1BE042F24410C0F2000075
:10191000FFF734FC14E041F6D870C0F20000FFF786
:101920002DFC0DE041F62370C0F20000FFF726FC0D
:1019300006E041F62C70C0F20000FFF71FFCFFE745
:1019400041F68F50C0F20000FFF718FC40F2600132
:10195000C2F2000103200870FFE7ADE040F2610130
:10196000C2F200010020087040F28D01C2F20001B5
:10197000087040F27701C2F200010870FFF7DEFB49
:1019800041F6BF70C0F20000FFF7F8FB41F6CC5003
:10199000C0F20000FFF7F2FBFFF7D0FB42F2A3001A
:1019A000C0F20000FFF7EAFB41F62E60C0F2000033
:1019B000FFF7E4FB3320FFF701FD40F26001C2F2C4
:1019C00000010620087077E0FFF70EFC00B3FFE788
:1019D000FFF748FC014640F21C10C2F20000017003
:1019E00000785E2813D1FFE7FFF7A8FB40F27701EC
:1019F000C2F200010020087040F28D01C2F2000125
:101A0000087040F26001C2F20001087054E0FFE784
:101A100040F26100C2F200000078C00718B3FFE78F
:101A200040F26101C2F200010020019008705E20C6
:101A3000FFF7C4FCFFF782FB41F66650C0F20000DE
:101A4000FFF79CFB019840F27701C2F20001087099
:101A500040F28D01C2F20001087040F26001C2F252
:101A60000001087002E0FEF7C7FFFFE724E040F244
:101A70006100C2F200000078C007C8B1FFE740F281
:101A80006101C2F200010020009008705E20FFF7A3
:101A900095FCFFF753FB41F66650C0F20000FFF7DC
:101AA0006DFB009840F26001C2F20001087002E094
:101AB000FEF726FFFFE7FFE7CEE4000081B00090CD
:101AC0000098008800994988401AB0FA80F04009CF
:101AD00001B0704780B584B0029001910298FFF781
:101AE000EDFF20B1FFE700208DF80F0010E0029815
:101AF00041880844007901990870029840880130B3
:101B000000F03F000299488001208DF80F00FFE7A8
:101B10009DF80F0004B080BD81B0009000990020B6
:101B200008800099488001B07047000083B00190A0
:101B30008DF8031001980088013000F03F00ADF8E7
:101B40000000BDF8000001994988884204D1FFE7F0
:101B500000208DF80B000DE09DF8030001990A8824
:101B600011440871BDF800000199088001208DF82A
:101B70000B00FFE79DF80B0003B0704781B00090A9
:101B80000098008800994988401AB0FA80F040090E
:101B900001B0704780B584B0029001910298FFF7C0
:101BA000EDFF20B1FFE700208DF80F0010E0029854
:101BB00041880844007901990870029840880130F2
:101BC00000F03F000299488001208DF80F00FFE7E8
:101BD0009DF80F0004B080BD81B0009000990020F6
:101BE00008800099488001B07047000083B00190E0
:101BF0008DF8031001980088013000F03F00ADF827
:101C00000000BDF8000001994988884204D1FFE72F
:101C100000208DF80B000DE09DF8030001990A8863
:101C200011440871BDF800000199088001208DF869
:101C30000B00FFE79DF80B0003B07047506C656127
:101C400073652073656C65637420616E206F7074BA
:101C5000696F6E2066726F6D2074686520666F6CA8
:101C60006C6F77696E67206C6973742028656E7479
:101C700065722031206F722032206F722033290D5F
:101C80000A0064286461726B292C207228726564D2
:101C9000292C206728677265656E292C20622862CE
:101CA0006C7565292C20792879656C6C6F77292CE7
:101CB0002063286379616E292C20702870757270FA
:101CC0006C65292C2077287768697465290D0A00CE
:101CD00074686520666F6C6C6F77696E6720636FE0
:101CE0006C6F7220776865656C3A204461726B2C6A
:101CF000205265642C20477265656E2C0D0A0032F7
:101D00003A204368616E6765207468652062726975
:101D10006768746E657373206F6620637572726591
:101D20006E74204C45442873292E0D0A00576169B2
:101D300074696E6720666F7220636F6C6F722063C8
:101D40006F64652066726F6D204D435532202E2ED4
:101D50002E0D0A0045786974696E672E2E2E2E2E80
:101D60002E2E2E0D0A0045786974696E67204D6F1E
:101D7000646520332E2E2E0D0A0074686520636F73
:101D80006C6F7220746F204D4355322E0D0A00493E
:101D90006E20636F6C6F7220576865656C2053749A
:101DA0006174652E0D0A00426C75652C2059656CB6
:101DB0006C6F772C204379616E2C20507572706C9B
:101DC000652C2057686974652E0D0A005072657382
:101DD000732073773120617420616E792074696D8E
:101DE0006520746F20657869742074686520636865
:101DF000617420726F6F6D2E0D0A00313A204368B6
:101E00006F6F736520616E64204C454420436F6C96
:101E10006F722E0D0A0025206272696768746E6504
:101E200073732E0D0A004D435520310D0A00286CA6
:101E3000657373207468616E20323020636861724C
:101E4000616374657273293A0D0A00506C656173A1
:101E5000652053656C656374206120636F6C6F72DD
:101E60002066726F6D2074686520666F6C6C6F778A
:101E7000696E67206C6973743A0D0A0057656C636C
:101E80006F6D6520746F20434543532034343720F1
:101E900050726F6A6563742032202D205541525470
:101EA0000D0A005265640D0A004F6E6365206120C3
:101EB000636F6C6F722069732073656C6563746502
:101EC000642C2070726573732073773120746F20D7
:101ED00073656E640D0A00506C65617365206368FC
:101EE0006F6F736520636F6D6D756E696361746983
:101EF0006F6E206D6F64650D0A004D6F6465203252
:101F0000204D4355313A207072657373205E207402
:101F10006F20657869742074686973206D6F6465DB
:101F20000D0A00507572706C650D0A00576869746F
:101F3000650D0A00426C75650D0A00437572726585
:101F40006E7420636F6C6F723A204461726B0D0A7D
:101F500000323A204D435531203C2D2D3E204D433B
:101F6000553220436F6C6F7220576865656C0D0A9F
:101F700000313A205043203C2D2D3E204D43553119
:101F8000204C454420436F6E74726F6C0D0A003311
:101F90003A20504331203C2D2D3E204D43553120D9
:101FA0003C2D2D3E204D435532203C2D2D3E2050C2
:101FB0004332204368617420526F6F6D0D0A004DEB
:101FC0006F64652033204D4355313A204368617476
:101FD00020526F6F6D0D0A004379616E0D0A004744
:101FE0007265656E0D0A00506C65617365207072D4
:101FF0006573732073773220746F20676F20746865
:10200000726F7567682074686520636F6C6F727398
:1020100020696E0D0A00526564204C656420697366
:10202000206F6E0D0A00507572706C65204C6564EF
:10203000206973206F6E0D0A005768697465204C23
:102040006564206973206F6E0D0A00426C7565200F
:102050004C6564206973206F6E0D0A004461726BD9
:10206000204C6564206973206F6E0D0A004379610E
:102070006E204C6564206973206F6E0D0A004772F4
:1020800065656E204C6564206973206F6E0D0A00D3
:1020900059656C6C6F77204C6564206973206F6E96
:1020A0000D0A00506C65617365207479706520615C
:1020B000206D65737361676520656E642077697450
:1020C0006820612072657475726E0D0A00506C652F
:1020D00061736520656E7465722061206465636953
:1020E0006D616C206E756D6265722066726F6D2019
:1020F0003020746F2031303020666F6C6C6F7765E4
:102100006420627920612072657475726E0D0A0018
:10211000496E76616C696420636F6C6F720D0A00A2
:10212000333A20457869740D0A004D6F646520319B
:10213000204D656E750D0A004D61696E204D656E0E
:10214000750D0A0059656C6C6F770D0A004D65734B
:10215000736167652066726F6D204D4355323A207A
:102160000043757272656E7420636F6C6F723A20F3
:1021700000526564204C6564206973206469737043
:102180006C617965642061742000507572706C65B3
:10219000204C656420697320646973706C61796593
:1021A0006420617420005768697465204C65642060
:1021B000697320646973706C61796564206174204F
:1021C00000426C7565204C656420697320646973F6
:1021D000706C6179656420617420004461726B20C9
:1021E0004C656420697320646973706C61796564FF
:1021F00020617420004379616E204C65642069730E
:1022000020646973706C6179656420617420004793
:102210007265656E204C6564206973206469737013
:102220006C61796564206174200059656C6C6F770E
:10223000204C656420697320646973706C617965F2
:102240006420617420001B5B306D001B5B33326DBA
:10225000001B5B33356D0000682200000000002089
:0822600020050000EC02000063
:040000050000028570
:00000001FF
