:020000040000FA
:10000000200500206D020000710200007302000054
:100010007502000077020000790200000000000075
:100020000000000000000000000000007B02000053
:100030007D020000000000007F020000810200003D
:10004000830200008302000083020000830200009C
:1000500083020000590E00008302000083020000AA
:10006000830200008302000083020000830200007C
:10007000830200008302000083020000830200006C
:10008000830200008302000083020000830200005C
:10009000830200008302000083020000830200004C
:1000A000830200008302000083020000830200003C
:1000B00083020000830200008D0400008302000020
:1000C000830200008302000083020000830200001C
:1000D000830200008302000083020000830200000C
:1000E00083020000830200008302000083020000FC
:1000F00083020000830200008302000083020000EC
:1001000083020000830200008302000083020000DB
:1001100083020000830200008302000083020000CB
:1001200083020000830200008302000083020000BB
:10013000D911000083020000830200008302000046
:1001400000000000000000000000000000000000AF
:10015000830200008302000083020000830200008B
:10016000000000000000000000000000000000008F
:10017000000000000000000000000000000000007F
:10018000000000000000000000000000000000006F
:10019000000000000000000000000000000000005F
:1001A000000000000000000000000000000000004F
:1001B000830200008302000083020000830200002B
:1001C000830200008302000083020000830200001B
:1001D000830200008302000083020000830200000B
:1001E00083020000830200008302000083020000FB
:1001F00083020000830200008302000083020000EB
:10020000830200008302000083020000000000005F
:1002100083020000830200008302000083020000CA
:1002200083020000830200008302000083020000BA
:1002300083020000830200008302000083020000AA
:10024000830200008302000083020000830200009A
:10025000830200008302000083020000830200008A
:1002600083020000830200008302000000F00AB84D
:10027000FEE7FEE7FEE7FEE7FEE7FEE7FEE7FEE756
:10028000FEE7FEE700F002F800F042F814A696E858
:10029000000CB244B344DA4501D100F039F8BAE8B1
:1002A0000F000FA696E83000A5EB040504EB060747
:1002B000AAEB0704A7F101074FEA15154FEA34141A
:1002C000A4F10104AC4201D300F022F813F0010FB5
:1002D00018BFFB1A43F0010300F001F8DBE71847F1
:1002E000FC1E00000C1F00007047000000230024CB
:1002F00000250026103A28BF78C1FBD8520728BF36
:1003000030C148BF0B6070471FB51FBD10B510BD91
:1003100000F029F81146FFF7F7FF01F07FF800F031
:1003200047F803B4FFF7F2FF03BC00F04FF80000FA
:1003300072B6704762B67047EFF3108072B67047BE
:1003400080F31088704730BF704702480249014A65
:10035000024B7047200100202005002020010020D2
:10036000704770477047754600F02CF8AE460500A0
:100370006946534620F00700854618B020B5FFF7C0
:10038000E4FFBDE820404FF000064FF000074FF0BB
:1003900000084FF0000BAC46ACE8C009ACE8C0095F
:1003A000ACE8C009ACE8C00921F007018D467047F0
:1003B00010B50446AFF300802046BDE81040FFF7BB
:1003C000B0BF00000048704700000020014918201D
:1003D000ABBEFEE7260002007047000082B08DF839
:1003E00006009DF8060062380146009117282ED8B5
:1003F0000099DFE801F018200C2C2C142C2C2C2C4C
:100400002C2C2C2C242C102C2C2C2C282C1C00209C
:100410008DF807001FE001208DF807001BE0022087
:100420008DF8070017E003208DF8070013E0042083
:100430008DF807000FE005208DF807000BE006207F
:100440008DF8070007E007208DF8070003E0002083
:100450008DF80700FFE79DF8070002B07047000025
:1004600082B00190FFE70198411E019158B1FFE76A
:1004700043F2D4000090FFE70098411E009108B1BC
:10048000FFE7F9E7EFE702B07047000080B582B000
:1004900045F21840C4F2020000680190019845F24C
:1004A0001C41C4F2020108609DF80400C006002847
:1004B0002BD5FFE70F20FFF7D3FF40F26000C2F219
:1004C00000000078032807D1FFE740F28E01C2F256
:1004D00000010120087017E040F26000C2F2000045
:1004E0000078062808D0FFE740F26000C2F2000062
:1004F0000078072807D1FFE740F26101C2F200014E
:1005000001200870FFE7FFE7FFE79DF80400C00740
:1005100028B3FFE70F20FFF7A3FF40F26000C2F20D
:1005200000000078032819D1FFE740F21A10C2F248
:1005300000000178013101700078082807DBFFE72F
:1005400040F21A11C2F2000100200870FFE740F2E9
:100550001911C2F2000101200870FFE7FFE702B0A5
:1005600080BD000080B582B08DF8070040F21B10FE
:10057000C2F20000007801460091072800F2BE8018
:100580000099DFE801F0041A31485F768DA400225B
:100590001046114600F0B6FB42F26F10C0F20000A8
:1005A00000F0DAFD9DF8070000F0E8FD41F6AA50E2
:1005B000C0F2000000F0D0FDA0E09DF8070000228E
:1005C000114600F09FFB42F20510C0F2000000F05F
:1005D000C3FD9DF8070000F0D1FD41F6AA50C0F21E
:1005E000000000F0B9FD89E09DF8072000210846D1
:1005F00000F088FB42F2A310C0F2000000F0ACFD56
:100600009DF8070000F0BAFD41F6AA50C0F20000C4
:1006100000F0A2FD72E09DF807100022104600F0E5
:1006200071FB42F25510C0F2000000F095FD9DF8FC
:10063000070000F0A3FD41F6AA50C0F2000000F050
:100640008BFD5BE09DF807200021104600F05AFB6F
:1006500042F2BE10C0F2000000F07EFD9DF80700DF
:1006600000F08CFD41F6AA50C0F2000000F074FDCD
:1006700044E09DF807200020114600F043FB42F2C1
:100680008910C0F2000000F067FD9DF8070000F03F
:1006900075FD41F6AA50C0F2000000F05DFD2DE0AE
:1006A0009DF807100022084600F02CFB42F21E10B5
:1006B000C0F2000000F050FD9DF8070000F05EFD64
:1006C00041F6AA50C0F2000000F046FD16E09DF889
:1006D00007201046114600F015FB42F23A10C0F216
:1006E000000000F039FD9DF8070000F047FD41F6DD
:1006F000AA50C0F2000000F02FFDFFE702B080BD5D
:1007000080B582B08DF807009DF807006238014679
:100710000091172800F29E800099DFE801F0416502
:100720000C9B9B2F9B9B9B9B9B9B9B9B779B1D9BB6
:100730009B9B9B899B5340F21B10C2F2000000223E
:1007400002701046114600F0DDFA41F62770C0F243
:10075000000000F001FD84E040F21B11C2F2000134
:100760000120087064200022114600F0CBFA41F607
:100770003560C0F2000000F0EFFC72E040F21B11A7
:10078000C2F200010220087000216422084600F035
:10079000B9FA41F6DE70C0F2000000F0DDFC60E066
:1007A00040F21B11C2F200010320087064210022F4
:1007B000104600F0A7FA41F6F960C0F2000000F020
:1007C000CBFC4EE040F21B11C2F200010420087085
:1007D00000216422104600F095FA42F2C700C0F2F0
:1007E000000000F0B9FC3CE040F21B11C2F2000135
:1007F0000520087000206422114600F083FA41F6BB
:10080000C670C0F2000000F0A7FC2AE040F21B1105
:10081000C2F200010620087064210022084600F0A0
:1008200071FA41F6C660C0F2000000F095FC18E0D5
:1008300040F21B11C2F2000107200870642210462A
:10084000114600F05FFA41F6E060C0F2000000F0EF
:1008500083FC06E042F29300C0F2000000F07CFC52
:10086000FFE702B080BD000080B582B08DF80700C0
:100870009DF8070062380146009117283ED800997C
:10088000DFE801F01E2A0C3C3C183C3C3C3C3C3C64
:100890003C3C303C123C3C3C3C363C240022104664
:1008A000114600F02FFA29E064200022114600F0E2
:1008B00029FA23E000216422084600F023FA1DE013
:1008C00064210022104600F01DFA17E00021642286
:1008D000104600F017FA11E000206422114600F0E3
:1008E00011FA0BE064210022084600F00BFA05E043
:1008F00064221046114600F005FAFFE702B080BD01
:1009000080B584B000F05EFC00286DD0FFE700F0F9
:1009100097FC8DF80F009DF80F005E2814D1FFE7BB
:1009200000F0FAFB41F6E240C0F2000000F014FCD7
:1009300040F26001C2F200010020087040F277012D
:10094000C2F2000108704FE09DF80F000D2819D089
:10095000FFE740F27700C2F200000078132810DCB5
:10096000FFE79DF80F0040F27701C2F200010B781B
:1009700040F26202C2F20002D054087801300870DE
:10098000FFE730E040F27700C2F200000190027809
:1009900040F26201C2F200010091002002908854EE
:1009A00000F0BAFB42F2E100C0F2000000F0D4FB1C
:1009B000009800F0D1FB00F0AFFB0199029808709D
:1009C00040F26001C2F200010620087042F22600E7
:1009D000C0F2000000F0C0FB41F6C050C0F20000C1
:1009E00000F0BAFBFFE7FFE704B080BD80B584B03C
:1009F00000F028FA002845D0FFE700F0A9FA8DF8AA
:100A00000F009DF80F0000F08FFB9DF80F000D28E0
:100A100019D0FFE740F28D00C2F2000000781328E1
:100A200010DCFFE79DF80F0040F28D01C2F20001DB
:100A30000B7840F27802C2F20002D05408780130FC
:100A40000870FFE71DE040F28D00C2F20000019047
:100A5000027840F27800C2F2000000210291815435
:100A600000F0AEFC0D2000F095FC00F055FB019964
:100A70000298087040F26001C2F20001072008707D
:100A8000FFE7FFE704B080BD81B04EF27001C4F211
:100A90000F010091086840F000400860086840F4C9
:100AA000006008604EF26002C4F20F02106820F489
:100AB000F8601060106800F5A8601060086820F009
:100AC0007000086008680860086820F4005008603A
:100AD000086840F0804008600868072262F39C5074
:100AE0000860FFE74EF25000C4F20F0000684006B5
:100AF000002801D4FFE7F5E74EF27001C4F20F01C0
:100B0000086820F40060086001B0704710B54EF22C
:100B10004061C4F20F01086840F0020008604EF224
:100B20000861C4F20F01086840F020000860FFE788
:100B30004EF60820C4F20F0000688006002801D499
:100B4000FFE7F5E745F22051C4F2020144F24B30D1
:100B5000C4F64F40086045F22451C4F2020108680F
:100B600040F01F00086045F2004CC4F2020CDCF8B3
:100B7000000040F00E00CCF8000045F21C53C4F217
:100B80000203186840F00E00186045F22852C4F2C3
:100B90000202106820F00E00106045F22041C4F2FD
:100BA0000201086840F00E00086045F22C5EC4F2B5
:100BB000020EDEF8000040F2555464F30F10CEF838
:100BC0000000DCF8000020F01100CCF800001868EC
:100BD00040F011001860106820F0110010600868E3
:100BE00020F01100086045F21051C4F202010868BB
:100BF00040F01100086045F20441C4F202010868A7
:100C000020F01100086045F20841C4F202010868B2
:100C100020F01100086045F20C41C4F2020108689E
:100C200020F01100086045F21C41C4F202011120BD
:100C3000086045F21041C4F20201086840F011005A
:100C400008604EF21C41CEF200010868402262F3B7
:100C5000174008604EF20011CEF20001086840F023
:100C60008040086049F2C00CC4F2020C0020CCF8AD
:100C7000000049F2E401C4F2020140F608430B60AF
:100C800049F2D001C4F202014CF24F320A6049F23B
:100C9000DC01C4F202010860DCF8001041F001013F
:100CA000CCF8001049F20011C4F20201086049F2C8
:100CB000201EC4F2020E4FF0C80CCEF800C049F25C
:100CC000241CC4F2020CCCF8003049F21013C4F218
:100CD00002031A6049F21812C4F20202106049F2CB
:100CE0001C12C4F202021060086840F001000860A3
:100CF00049F20801C4F20201086840F0E00008600F
:100D000010BD000085B08DF813008DF812108DF81D
:100D100011204CF2503003909DF8130018B9FFE7F2
:100D20000020029020E09DF81300642804D1FFE722
:100D30004CF24E30029016E003989DF81310484391
:100D400048F21F51C5F2EB11A0FB011040090290BF
:100D500002984CF24F31884204D3FFE74CF24E30F8
:100D60000290FFE7FFE7FFE79DF8120018B9FFE7E1
:100D70000020019020E09DF81200642804D1FFE7D4
:100D80004CF24E30019016E003989DF81210484343
:100D900048F21F51C5F2EB11A0FB01104009019070
:100DA00001984CF24F31884204D3FFE74CF24E30A9
:100DB0000190FFE7FFE7FFE79DF8110018B9FFE793
:100DC0000020009020E09DF81100642804D1FFE786
:100DD0004CF24E30009016E003989DF811104843F5
:100DE00048F21F51C5F2EB11A0FB01104009009021
:100DF00000984CF24F31884204D3FFE74CF24E305A
:100E00000090FFE7FFE7FFE7029849F2DC01C4F238
:100E100002010860019849F21811C4F20201086049
:100E2000009849F21C11C4F20201086005B0704735
:100E300080B5FFF729FEFFF769FE00F0E7F800F044
:100E400011FA80BD80B540F29000C2F2000000F0BF
:100E5000F3FD80F0010080BD80B582B04CF23C0013
:100E6000C4F200000068C00600285ED5FFE7FFE777
:100E70004CF21800C4F200000068C00600284DD4EF
:100E8000FFE74CF20000C4F2000000688DF8070094
:100E90009DF807005E2837D1FFE740F26000C2F2FC
:100EA00000000078022810D0FFE740F26000C2F294
:100EB00000000078032808D0FFE740F26000C2F28B
:100EC0000000007804281FD1FFE740F28E00C2F234
:100ED000000000220092027040F21910C2F20000DD
:100EE000027040F21A10C2F2000002701046114661
:100EF000FFF708FF5E2000F04DFA009840F2600115
:100F0000C2F20001087008E09DF8071040F290005E
:100F1000C2F2000000F0C8FDFFE7A9E74CF244016F
:100F2000C4F2000110200860FFE74CF23C00C4F25C
:100F3000000000688006002807D5FFE74CF2440156
:100F4000C4F2000120200860FFE702B080BD00006D
:100F500080B582B0FFE740F29000C2F200000DF1D0
:100F6000070100F075FD08B9FFE7F4E79DF80700F9
:100F700002B080BD80B584B0002003900290FFF7DE
:100F8000E7FF8DF80700FFE79DF807000D283AD02E
:100F9000FFE79DF80700302816DBFFE79DF8070004
:100FA000392811DCFFE7039800EB80019DF807006A
:100FB00000EB4100303803900298013002909DF818
:100FC000070000F0B1F819E09DF80700082814D1D7
:100FD000FFE7029888B1FFE703984CF6CD41CCF6C5
:100FE000CC41A0FB0110C008039002980138029088
:100FF0009DF8070000F098F8FFE7FFE7FFF7A8FF6C
:101000008DF80700C0E7039804B080BD80B54EF2AC
:101010001861C4F20F01086840F0010008604EF248
:101020000861C4F20F01086840F001000860FFE7A2
:101030004EF60820C4F20F000068C00708B9FFE7A9
:10104000F6E740F29000C2F2000000F023FD4CF2FF
:101050003001C4F20001086820F0010008604CF281
:101060002402C4F2000240F2451010604CF2280243
:10107000C4F20002212010604CF22C02C4F20002E3
:10108000602010604CF24402C4F2000240F2FF7093
:1010900010604CF23802C4F200020020106044F2EA
:1010A0002043C4F20003186840F00300186044F2C3
:1010B0001C53C4F20003186840F00300186044F2A7
:1010C0002C53C4F2000318684FF0110C6CF30700A6
:1010D000186044F22853C4F20003186820F003009B
:1010E0001860106840F0100010604EF20442CEF21A
:1010F0000002106820F4604010604EF20012CEF240
:101100000002106840F020001060086840F20132D0
:101110001043086080BD000080B50D2000F004F889
:101120000A2000F001F880BD81B08DF80300FFE7D0
:101130004CF21800C4F2000000688006002801D5B7
:10114000FFE7F5E79DF803004CF20001C4F200014F
:10115000086001B07047000080B582B00190FFE7E1
:101160000198007840B1FFE701980078FFF7DCFFB5
:10117000019801300190F3E702B080BD80B582B0E4
:10118000019001980A2816D3FFE701984CF6CD414B
:10119000CCF6CC410091A0FB0110C008FFF7EEFF98
:1011A00000990198A0FB0121C90801EB8101A0EB86
:1011B00041000190FFE701983030C0B2FFF7B4FF63
:1011C00002B080BD80B540F2D400C2F2000000F051
:1011D00093FC80F0010080BD80B53C20C4F201008A
:1011E0000068C00600281BD5FFE7FFE71820C4F2FF
:1011F00001000068C00600280CD4FFE70020C4F2FC
:1012000001000068C1B240F2D400C2F2000000F058
:10121000ABFCEBE74421C4F2010110200860FFE7BA
:101220003C20C4F2010000688006002806D5FFE7D4
:101230004421C4F2010120200860FFE780BD0000C6
:1012400080B582B0FFE740F2D400C2F200000DF199
:10125000070100F05DFC08B9FFE7F4E79DF807001F
:1012600002B080BD80B54EF21861C4F20F0108686B
:1012700040F0100008604EF20861C4F20F010868E7
:1012800040F004000860FFE74EF60820C4F20F00AB
:1012900000684007002801D4FFE7F5E740F2D400DA
:1012A000C2F2000000F056FC46F22051C4F20001E8
:1012B00044F24B30C4F64F40086046F22451C4F269
:1012C0000001086840F0300008603021C4F20101DC
:1012D000086820F0010008602422C4F20102D9202D
:1012E00010602820C4F20100012303602C22C4F204
:1012F0000102602010604422C4F2010240F2FF703B
:1013000010603822C4F201020020106046F2204C26
:10131000C4F2000CDCF8000040F03000CCF8000013
:1013200046F21C5CC4F2000CDCF8000040F0300017
:10133000CCF8000046F22C5CC4F2000CDCF8000093
:101340004FF0110E6EF31740CCF8000046F2285C07
:10135000C4F2000CDCF8000020F03000CCF80000F3
:10136000106840F0100010604EF23C42CEF20002D5
:10137000106863F35F7010604EF20412CEF2000248
:10138000106840F080501060086840F2013210434D
:10139000086080BD81B08DF80300FFE71820C4F21B
:1013A000010000688006002801D5FFE7F6E79DF8F8
:1013B00003000021C4F20101086001B07047000081
:1013C00080B582B00190FFE70198007840B1FFE757
:1013D00001980078FFF7DEFF019801300190F3E7F4
:1013E00002B080BD83B08DF80B009DF80B0008287B
:1013F00004DBFFE700208DF80B00FFE746F27930B1
:10140000C7F27070019047F26420C6F26720009026
:101410009DF80B106846405C03B0704780B58AB0F9
:1014200000200990FFF704FD6420FFF719F8FFE79B
:1014300040F26000C2F200000078014607910728E0
:1014400000F2F8820799DFE811F0080075000E013C
:101450005D01F8017502AB02D002FFF75DFE41F6B7
:101460000E60C0F20000FFF777FE41F6B850C0F200
:101470000000FFF771FE42F2BB00C0F20000FFF770
:101480006BFE41F65F70C0F20000FFF765FE41F6AB
:101490003F70C0F20000FFF75FFE41F67D70C0F2C2
:1014A0000000FFF759FE41F67A60C0F20000FFF736
:1014B00053FE41F6E830C0F20000FFF74DFEFFF7A3
:1014C0002BFEFFF745FD014640F21810C2F2000066
:1014D000069001700078FFF727FE06980078312803
:1014E00007D1FFE740F26001C2F20001012008705D
:1014F0001FE040F21810C2F200000078322807D135
:10150000FFE740F26001C2F20001022008700FE024
:1015100040F21810C2F200000078332807D1FFE72C
:1015200040F26001C2F2000105200870FFE7FFE70A
:10153000FFE77FE2FFF7F0FD42F2AD00C0F20000EE
:10154000FFF70AFE41F6B830C0F20000FFF704FED4
:1015500041F68F50C0F20000FFF7FEFD41F67B40E0
:10156000C0F20000FFF7F8FD42F2A300C0F2000055
:10157000FFF7F2FDFFF7D0FDFFF7EAFC014640F26E
:101580001810C2F20000059001700078FFF7CCFD42
:10159000FFF7C2FD0598007831282FD1FFE7FFF74C
:1015A000BBFD41F6DD50C0F20000FFF7D5FD41F66E
:1015B000FE30C0F20000FFF7CFFDFFF7ADFDFFF7F3
:1015C000C7FC014640F21810C2F20000017000781A
:1015D000FFF7AAFDFFF7BCFC8DF82300FFF79CFD89
:1015E0009DF823000D2808D1FFE740F21810C2F241
:1015F00000000078FFF784F8FFE733E040F21810AE
:10160000C2F200000078322813D1FFE7FFF784FD13
:1016100042F25000C0F20000FFF79EFDFFF7AAFC67
:101620008DF82200FFF778FD9DF82200FEF79AFF63
:1016300017E040F21810C2F20000007833280FD1F2
:10164000FFE741F6D040C0F20000FFF785FD40F211
:101650006001C2F2000100200870FFF75DFDFFE7A6
:10166000FFE7FFE7E6E140F28E01C2F20001002051
:10167000087040F21911C2F20001087040F21A110C
:10168000C2F200010870FFF747FD41F69D60C0F20D
:101690000000FFF761FD41F62350C0F20000FFF7A4
:1016A0005BFD41F6F770C0F20000FFF755FD41F613
:1016B0004C40C0F20000FFF74FFD41F63B50C0F236
:1016C0000000FFF749FD41F64C60C0F20000FFF753
:1016D00043FD41F60E50C0F20000FFF73DFD41F61C
:1016E0001170C0F20000FFF737FD6420FFF7BCF86F
:1016F0003220FFF74FFE40F26001C2F200010320EA
:10170000087097E140F21910C2F200000078C0079B
:10171000002800F06980FFE740F21911C2F20001D1
:101720000020087040F21A10C2F200000078FFF7A3
:1017300059FE8DF821009DF82100FFF795F842F23F
:10174000F500C0F20000FFF707FD9DF821006238A8
:1017500001460491172846D80499DFE801F0212FAB
:101760000C44441A444444444444444436441344DA
:101770004444443D442841F63870C0F20000FFF76D
:10178000EBFC30E041F64660C0F20000FFF7E4FCFD
:1017900029E041F6EF70C0F20000FFF7DDFC22E027
:1017A00041F60A70C0F20000FFF7D6FC1BE042F2DF
:1017B000D800C0F20000FFF7CFFC14E041F6D7706C
:1017C000C0F20000FFF7C8FC0DE041F6D760C0F2A0
:1017D0000000FFF7C1FC06E041F6F160C0F2000036
:1017E000FFF7BAFCFFE7FFE740F28E00C2F200000D
:1017F0000078C00700B3FFE740F28E01C2F200019B
:101800000020087040F21A10C2F200000078FFF7C2
:10181000E9FD8DF820009DF82000FFF7BBFD41F6A3
:10182000A940C0F20000FFF797FC40F26001C2F24D
:10183000000104200870FFE7FCE0FFF7C3FC00286C
:1018400000F07780FFE7FFF7FBFC014640F21C1039
:10185000C2F20000029001700078FFF705F80298CC
:101860000078FEF7BBFD40F21A11C2F200010870C9
:1018700042F2F500C0F20000FFF76EFC029800781B
:10188000623801460391172846D80399DFE801F032
:10189000212F0C44441A44444444444444443644B0
:1018A00013444444443D442841F63870C0F20000DB
:1018B000FFF752FC30E041F64660C0F20000FFF74F
:1018C0004BFC29E041F6EF70C0F20000FFF744FC4A
:1018D00022E041F60A70C0F20000FFF73DFC1BE079
:1018E00042F2D800C0F20000FFF736FC14E041F6E7
:1018F000D770C0F20000FFF72FFC0DE041F6D76073
:10190000C0F20000FFF728FC06E041F6F160C0F2EB
:101910000000FFF721FCFFE741F62350C0F2000072
:10192000FFF71AFC40F26001C2F2000103200870C8
:10193000FFE77FE040F26101C2F200010020087081
:1019400040F28D01C2F20001087040F27701C2F24C
:1019500000010870FFF7E0FB41F6AD70C0F2000037
:10196000FFF7FAFB41F66050C0F20000FFF7F4FB0E
:10197000FFF7D2FB42F22600C0F20000FFF7ECFBBB
:1019800041F6C050C0F20000FFF7E6FB3320FFF73E
:1019900001FD40F26001C2F200010620087049E03A
:1019A00040F26100C2F200000078C007C8B1FFE752
:1019B00040F26101C2F200010020019008705E2037
:1019C000FFF7E8FCFFF7A8FB41F6FA40C0F2000081
:1019D000FFF7C2FB019840F26001C2F200010870FB
:1019E00002E0FFF703F8FFE724E040F26100C2F2F3
:1019F00000000078C007C8B1FFE740F26101C2F201
:101A000000010020009008705E20FFF7C3FCFFF784
:101A100083FB41F6FA40C0F20000FFF79DFB0098FF
:101A200040F26001C2F20001087002E0FEF768FFB8
:101A3000FFE7FFE7FCE4000081B000900098008819
:101A400000994988401AB0FA80F0400901B0704707
:101A500080B584B0029001910298FFF7EDFF20B1AC
:101A6000FFE700208DF80F0010E00298418808443D
:101A700000790199087002984088013000F03F0019
:101A80000299488001208DF80F00FFE79DF80F00B4
:101A900004B080BD81B000900099002008800099BA
:101AA000488001B07047000083B001908DF80310AA
:101AB00001980088013000F03F00ADF80000BDF84B
:101AC000000001994988884204D1FFE700208DF881
:101AD0000B000DE09DF8030001990A88114408717C
:101AE000BDF800000199088001208DF80B00FFE788
:101AF0009DF80B0003B0704781B0009000980088FB
:101B000000994988401AB0FA80F0400901B0704746
:101B100080B584B0029001910298FFF7EDFF20B1EB
:101B2000FFE700208DF80F0010E00298418808447C
:101B300000790199087002984088013000F03F0058
:101B40000299488001208DF80F00FFE79DF80F00F3
:101B500004B080BD81B000900099002008800099F9
:101B6000488001B07047000083B001908DF80310E9
:101B700001980088013000F03F00ADF80000BDF88A
:101B8000000001994988884204D1FFE700208DF8C0
:101B90000B000DE09DF8030001990A8811440871BB
:101BA000BDF800000199088001208DF80B00FFE7C7
:101BB0009DF80B0003B07047506C6561736520732E
:101BC000656C65637420616E206F7074696F6E2040
:101BD00066726F6D2074686520666F6C6C6F7769D4
:101BE0006E67206C6973742028656E74657220318D
:101BF000206F722032206F722033290D0A00642872
:101C00006461726B292C207228726564292C20670C
:101C100028677265656E292C206228626C756529BB
:101C20002C20792879656C6C6F77292C20632863C8
:101C300079616E292C207028707572706C65292C62
:101C40002077287768697465290D0A007468652013
:101C5000666F6C6C6F77696E6720636F6C6F722054
:101C6000776865656C3A204461726B2C205265641C
:101C70002C20477265656E2C0D0A00323A204368AD
:101C8000616E676520746865206272696768746E4A
:101C9000657373206F662063757272656E74204C75
:101CA00045442873292E0D0A0057616974696E67CF
:101CB00020666F7220636F6C6F7220636F646520A3
:101CC00066726F6D204D435532202E2E2E0D0A0068
:101CD00045786974696E672E2E2E2E2E2E2E2E0DAF
:101CE0000A004D43553220657869746564204D6F54
:101CF000646520332E2E2E0D0A0045786974696EB6
:101D000067204D6F646520332E2E2E0D0A007468F7
:101D10006520636F6C6F7220746F204D4355322EB7
:101D20000D0A00496E20636F6C6F722057686565FD
:101D30006C2053746174652E0D0A00426C75652C1D
:101D40002059656C6C6F772C204379616E2C205084
:101D50007572706C652C2057686974652E0D0A00C9
:101D600050726573732073773120617420616E79CE
:101D70002074696D6520746F2065786974207468BB
:101D800065206368617420726F6F6D2E0D0A0031DB
:101D90003A2043686F6F736520616E64204C454440
:101DA00020436F6C6F722E0D0A006272696768744F
:101DB0006E6573732E0D0A004D435520310D0A00D8
:101DC000286C657373207468616E203230206368FC
:101DD0006172616374657273293A0D0A00506C6513
:101DE0006173652053656C656374206120636F6C5B
:101DF0006F722066726F6D2074686520666F6C6C00
:101E00006F77696E67206C6973743A0D0A005765C5
:101E10006C636F6D6520746F2043454353203434E9
:101E2000372050726F6A6563742032202D2055412F
:101E300052540D0A00436F6C6F72206368616E67C5
:101E4000656420746F205265640D0A004F6E6365EF
:101E5000206120636F6C6F722069732073656C65FD
:101E6000637465642C2070726573732073773120FE
:101E7000746F2073656E640D0A00506C6561736544
:101E80002063686F6F736520636F6D6D756E696336
:101E90006174696F6E206D6F64650D0A004D6F642B
:101EA000652032204D4355313A207072657373209E
:101EB0005E20746F20657869742074686973206D82
:101EC0006F64650D0A00436F6C6F72206368616E0A
:101ED00067656420746F20507572706C650D0A0020
:101EE000436F6C6F72206368616E67656420746F06
:101EF0002057686974650D0A00436F6C6F72206328
:101F000068616E67656420746F20426C75650D0AA8
:101F10000043757272656E7420636F6C6F723A2045
:101F20004461726B0D0A00436F6C6F7220636861CD
:101F30006E67656420746F204461726B0D0A003215
:101F40003A204D435531203C2D2D3E204D435532F6
:101F500020436F6C6F7220576865656C0D0A003105
:101F60003A205043203C2D2D3E204D435531204CEE
:101F7000454420436F6E74726F6C0D0A00333A2033
:101F8000504331203C2D2D3E204D435531203C2DDA
:101F90002D3E204D435532203C2D2D3E20504332C6
:101FA000204368617420526F6F6D0D0A004D6F649D
:101FB000652033204D4355313A20436861742052E7
:101FC0006F6F6D0D0A00436F6C6F72206368616EF6
:101FD00067656420746F204379616E0D0A00436F5A
:101FE0006C6F72206368616E67656420746F204750
:101FF0007265656E0D0A00506C65617365207072C4
:102000006573732073773220746F20676F20746854
:10201000726F7567682074686520636F6C6F727388
:1020200020696E0D0A00506C6561736520747970CB
:10203000652061206D65737361676520656E64203E
:102040007769746820612072657475726E0D0A007C
:10205000506C6561736520656E74657220612064E3
:102060006563696D616C206E756D62657220667264
:102070006F6D203020746F2031303020666F6C6CB3
:102080006F77656420627920612072657475726E65
:102090000D0A00496E76616C696420636F6C6F7223
:1020A0000D0A00333A20457869740D0A004D6F64BB
:1020B000652031204D656E750D0A004D61696E20F9
:1020C0004D656E750D0A00436F6C6F722063686119
:1020D0006E67656420746F2059656C6C6F770D0AAC
:1020E000004D6573736167652066726F6D204D43A7
:1020F00055323A200043757272656E7420636F6CBE
:102100006F723A2000526564204C65642069732028
:10211000646973706C617965642061742000507526
:1021200072706C65204C65642069732064697370FB
:102130006C6179656420617420005768697465205A
:102140004C656420697320646973706C617965649F
:102150002061742000426C7565204C6564206973B1
:1021600020646973706C6179656420617420004437
:1021700061726B204C656420697320646973706CB4
:102180006179656420617420004379616E204C653B
:102190006420697320646973706C6179656420617F
:1021A000742000477265656E204C65642069732059
:1021B000646973706C61796564206174200059658D
:1021C0006C6C6F77204C6564206973206469737050
:1021D0006C6179656420617420000000EC210000CE
:0C21E0000000002020050000EC020000C0
:040000050000028570
:00000001FF
