:020000040000FA
:10000000680400206D02000071020000730200000D
:100010007502000077020000790200000000000075
:100020000000000000000000000000007B02000053
:100030007D020000000000007F020000810200003D
:10004000830200008302000083020000830200009C
:10005000830200008302000083020000830200008C
:10006000830200008302000083020000830200007C
:10007000830200008302000083020000830200006C
:10008000830200008302000083020000830200005C
:10009000830200008302000083020000830200004C
:1000A000830200008302000083020000830200003C
:1000B000830200008302000083020000830200002C
:1000C000830200008302000083020000830200001C
:1000D000830200008302000083020000830200000C
:1000E00083020000830200008302000083020000FC
:1000F00083020000830200008302000083020000EC
:1001000083020000830200008302000083020000DB
:1001100083020000830200008302000083020000CB
:1001200083020000830200008302000083020000BB
:1001300083020000830200008302000083020000AB
:1001400000000000000000000000000000000000AF
:10015000830200008302000083020000830200008B
:10016000000000000000000000000000000000008F
:10017000000000000000000000000000000000007F
:10018000000000000000000000000000000000006F
:10019000000000000000000000000000000000005F
:1001A000000000000000000000000000000000004F
:1001B000830200008302000083020000830200002B
:1001C000830200008302000083020000830200001B
:1001D000830200008302000083020000830200000B
:1001E00083020000830200008302000083020000FB
:1001F00083020000830200008302000083020000EB
:10020000830200008302000083020000000000005F
:1002100083020000830200008302000083020000CA
:1002200083020000830200008302000083020000BA
:1002300083020000830200008302000083020000AA
:10024000830200008302000083020000830200009A
:10025000830200008302000083020000830200008A
:1002600083020000830200008302000000F00AB84D
:10027000FEE7FEE7FEE7FEE7FEE7FEE7FEE7FEE756
:10028000FEE7FEE700F002F800F042F814A696E858
:10029000000CB244B344DA4501D100F039F8BAE8B1
:1002A0000F000FA696E83000A5EB040504EB060747
:1002B000AAEB0704A7F101074FEA15154FEA34141A
:1002C000A4F10104AC4201D300F022F813F0010FB5
:1002D00018BFFB1A43F0010300F001F8DBE71847F1
:1002E00084060000940600007047000000230024EC
:1002F00000250026103A28BF78C1FBD8520728BF36
:1003000030C148BF0B6070471FB51FBD10B510BD91
:1003100000F067F81146FFF7F7FF00F0C9FA00F0A8
:1003200085F803B4FFF7F2FF03BC00F08DF800007E
:1003300072B6704762B67047EFF3108072B67047BE
:1003400080F31088704730BF704702480249014A65
:10035000024B7047680000206804002068000020FD
:1003600030B44FF0013C50F8042B51F8043BCCFA68
:1003700052F4D51A20D1FCB950F8042B51F8043BA3
:10038000CCFA52F4D51A17D1B4B950F8042B51F85D
:10039000043BCCFA52F4D51A0ED16CB950F8042BA8
:1003A00051F8043BCCFA52F4D51A05D1002CDAD01E
:1003B00030BC4FF00000704729BAB1FA81F111F05A
:1003C0001801D1F120008440F2D1CA40CB4012F094
:1003D000FF0213F0FF0330BCD01A7047704770471C
:1003E0007047754600F02CF8AE4605006946534646
:1003F00020F00700854618B020B5FFF7A6FFBDE83E
:1004000020404FF000064FF000074FF000084FF07B
:10041000000BAC46ACE8C009ACE8C009ACE8C009C8
:10042000ACE8C00921F007018D46704710B50446BD
:10043000AFF300802046BDE81040FFF772BF000018
:10044000004870470000002001491820ABBEFEE7BD
:10045000260002007047000080B58EB0FFE740F232
:100460006000C2F20000007801460391032800F208
:10047000BE800399DFE801F0024690BA00F0B8F8B8
:1004800040F64910C0F2000000F000FA04A8029003
:10049000272100F011F9029840F65A11C0F200012C
:1004A000FFF75EFF48B9FFE700F0A2F840F26001F5
:1004B000C2F2000101200870FFE740F65C11C0F2B3
:1004C000000104A8FFF74CFF48B9FFE700F090F8DF
:1004D00040F26001C2F2000102200870FFE740F61E
:1004E0005E11C0F2000104A8FFF73AFF48B9FFE728
:1004F00000F07EF840F26001C2F2000103200870B3
:10050000FFE774E040F62310C0F2000000F0BEF9EF
:1005100004A80190272100F0CFF800F069F80198B5
:1005200040F65A11C0F20001FFF71AFF48B9FFE781
:1005300040F6F800C0F2000000F0A8F900F058F80A
:10054000FFE740F65C11C0F2000104A8FFF708FFC6
:1005500048B9FFE740F6E600C0F2000000F096F967
:1005600000F046F8FFE740F65E11C0F2000104A873
:10057000FFF7F6FE78B9FFE740F6C400C0F20000CE
:1005800000F084F900F034F840F26001C2F200019A
:1005900000200870FFE72AE040F63610C0F20000A5
:1005A00000F074F940F6D300C0F2000000F06EF9DC
:1005B00040F60C10C0F2000000F068F904A80090AA
:1005C000272100F079F800F013F8009840F6601148
:1005D000C0F20001FFF7C4FE38B9FFE740F2600146
:1005E000C2F2000100200870FFE700E0FFE736E7F5
:1005F00080B50D2000F032F90A2000F02FF980BDFF
:1006000081B04EF27001C4F20F010091086840F011
:1006100000400860086840F4006008604EF2600224
:10062000C4F20F02106820F4F8601060106800F542
:10063000A8601060086820F0700008600868086012
:10064000086820F400500860086840F080400860A6
:100650000868072262F39C500860FFE74EF25000E2
:10066000C4F20F0000684006002801D4FFE7F5E758
:100670004EF27001C4F20F01086820F400600860B7
:1006800001B0704780B5FFF7BBFF0021084600F0BE
:1006900057F880BDFFE74CF21800C4F20000006874
:1006A000C006002801D5FFE7F5E74CF20000C4F2D0
:1006B00000000068C0B2704780B584B00390ADF808
:1006C0000A1000200190FFF7E5FF8DF80300FFE717
:1006D0009DF803000D282ED0FFE79DF803000828A1
:1006E0000ED1FFE7019850B1FFE70398013803905E
:1006F000019801380190082000F0B0F8FFE715E0FC
:100700000198BDF80A1088420FDAFFE79DF8030050
:10071000039908700398013003900198013001900B
:100720009DF8030000F09AF8FFE7FFE7FFF7B2FF3C
:100730008DF80300CCE703990020087004B080BD59
:1007400081B08DF803008DF802104EF20411C4F24E
:100750000F01086840F0010008604EF20811C4F271
:100760000F01086840F0010008604CF23001C4F24B
:100770000001002008604CF22401C4F200011B209B
:1007800008604CF22801C4F20001082008604CF215
:100790002C01C4F20001602008609DF803009DF860
:1007A00002100843C00760B3FFE74EF20441CEF2E7
:1007B00000010868052262F34F3008604EF2001114
:1007C000CEF20001202008609DF80300C00748B168
:1007D000FFE74CF23801C4F20001086840F0100055
:1007E0000860FFE79DF80200C00748B1FFE74CF240
:1007F0003801C4F20001086840F020000860FFE7FB
:10080000FFE74CF23001C4F20001086840F2013207
:100810001043086044F22041C4F20001086840F02F
:100820000300086044F21C51C4F20001086840F063
:100830000300086044F22C51C4F200010868112240
:1008400062F30700086044F22851C4F2000108680E
:1008500020F00300086001B07047000081B08DF8FF
:100860000300FFE74CF21800C4F2000000688006A5
:10087000002801D5FFE7F5E79DF803004CF20001E1
:10088000C4F20001086001B07047000080B582B07A
:100890000190FFE70198007840B1FFE701980078E8
:1008A000FFF7DCFF019801300190F3E702B080BD53
:1008B00080B582B000200190FFF7E4FEFFE7FFF76C
:1008C000CBFDFCE745786974696E672E2E2E2E2EBF
:1008D0000A0D00436F6C6F7220776865656C206D40
:1008E0006F64650A0D004272696768746E657373A0
:1008F000206D6F64650A0D00436F6C6F7220536545
:100900006C656374206D6F64650A0D0050726573C9
:1009100073205E20746F2065786974206D6F646544
:100920000A0D004D6F64652031204D656E752054B1
:100930006573740A0D004D6F64652032204D656E3D
:100940007520546573740A0D004D61696E204D6504
:100950006E7520546573740A0D0031003200330047
:100960005E00000074090000000000206804000020
:04097000EC02000095
:040000050000028570
:00000001FF
