:020000040000FA
:10000000F00400206D020000710200007302000085
:100010007502000077020000790200000000000075
:100020000000000000000000000000007B02000053
:100030007D020000000000007F020000810200003D
:10004000830200008302000083020000830200009C
:10005000830200008D0C0000830200008302000078
:10006000830200008302000083020000830200007C
:10007000830200008302000083020000830200006C
:10008000830200008302000083020000830200005C
:10009000830200008302000083020000830200004C
:1000A000830200008302000083020000830200003C
:1000B00083020000830200008D0400008302000020
:1000C000830200008302000083020000830200001C
:1000D000830200008302000083020000830200000C
:1000E00083020000830200008302000083020000FC
:1000F00083020000830200008302000083020000EC
:1001000083020000830200008302000083020000DB
:1001100083020000830200008302000083020000CB
:1001200083020000830200008302000083020000BB
:100130000D10000083020000830200008302000013
:1001400000000000000000000000000000000000AF
:10015000830200008302000083020000830200008B
:10016000000000000000000000000000000000008F
:10017000000000000000000000000000000000007F
:10018000000000000000000000000000000000006F
:10019000000000000000000000000000000000005F
:1001A000000000000000000000000000000000004F
:1001B000830200008302000083020000830200002B
:1001C000830200008302000083020000830200001B
:1001D000830200008302000083020000830200000B
:1001E00083020000830200008302000083020000FB
:1001F00083020000830200008302000083020000EB
:10020000830200008302000083020000000000005F
:1002100083020000830200008302000083020000CA
:1002200083020000830200008302000083020000BA
:1002300083020000830200008302000083020000AA
:10024000830200008302000083020000830200009A
:10025000830200008302000083020000830200008A
:1002600083020000830200008302000000F00AB84D
:10027000FEE7FEE7FEE7FEE7FEE7FEE7FEE7FEE756
:10028000FEE7FEE700F002F800F042F814A696E858
:10029000000CB244B344DA4501D100F039F8BAE8B1
:1002A0000F000FA696E83000A5EB040504EB060747
:1002B000AAEB0704A7F101074FEA15154FEA34141A
:1002C000A4F10104AC4201D300F022F813F0010FB5
:1002D00018BFFB1A43F0010300F001F8DBE71847F1
:1002E000281B0000381B000070470000002300247A
:1002F00000250026103A28BF78C1FBD8520728BF36
:1003000030C148BF0B6070471FB51FBD10B510BD91
:1003100000F029F81146FFF7F7FF00F087FF00F023
:1003200047F803B4FFF7F2FF03BC00F04FF80000FA
:1003300072B6704762B67047EFF3108072B67047BE
:1003400080F31088704730BF704702480249014A65
:10035000024B7047F0000020F0040020F000002065
:10036000704770477047754600F02CF8AE460500A0
:100370006946534620F00700854618B020B5FFF7C0
:10038000E4FFBDE820404FF000064FF000074FF0BB
:1003900000084FF0000BAC46ACE8C009ACE8C0095F
:1003A000ACE8C009ACE8C00921F007018D467047F0
:1003B00010B50446AFF300802046BDE81040FFF7BB
:1003C000B0BF00000048704700000020014918201D
:1003D000ABBEFEE7260002007047000082B08DF839
:1003E00006009DF8060062380146009117282ED8B5
:1003F0000099DFE801F018200C2C2C142C2C2C2C4C
:100400002C2C2C2C242C102C2C2C2C282C1C00209C
:100410008DF807001FE001208DF807001BE0022087
:100420008DF8070017E003208DF8070013E0042083
:100430008DF807000FE005208DF807000BE006207F
:100440008DF8070007E007208DF8070003E0002083
:100450008DF80700FFE79DF8070002B07047000025
:1004600082B00190FFE70198411E019158B1FFE76A
:1004700043F2D4000090FFE70098411E009108B1BC
:10048000FFE7F9E7EFE702B07047000080B582B000
:1004900045F21840C4F2020000680190019845F24C
:1004A0001C41C4F2020108609DF80400C006002847
:1004B00013D5FFE70F20FFF7D3FF40F26000C2F231
:1004C00000000078032807D1FFE740F26101C2F283
:1004D000000101200870FFE7FFE79DF80400C00756
:1004E00028B3FFE70F20FFF7BBFF40F26000C2F226
:1004F00000000078032819D1FFE740F2EC00C2F2B7
:1005000000000178013101700078082807DBFFE75F
:1005100040F2EC01C2F2000100200870FFE740F257
:10052000EB01C2F2000101200870FFE7FFE702B013
:1005300080BD000080B582B08DF8070040F2ED006C
:10054000C2F20000007801460091072800F2BE8048
:100550000099DFE801F0041A31485F768DA400228B
:100560001046114600F0F2FA41F69C50C0F200002D
:1005700000F00CFD9DF8070000F01AFD41F64B203D
:10058000C0F2000000F002FDA0E09DF8070000228C
:10059000114600F0DBFA41F63250C0F2000000F0E4
:1005A000F5FC9DF8070000F003FD41F64B20C0F27A
:1005B000000000F0EBFC89E09DF8072000210846D0
:1005C00000F0C4FA41F6D050C0F2000000F0DEFCAA
:1005D0009DF8070000F0ECFC41F64B20C0F2000053
:1005E00000F0D4FC72E09DF807100022104600F0E5
:1005F000ADFA41F68250C0F2000000F0C7FC9DF851
:10060000070000F0D5FC41F64B20C0F2000000F0DE
:10061000BDFC5BE09DF807200021104600F096FA33
:1006200041F6EB50C0F2000000F0B0FC9DF807006E
:1006300000F0BEFC41F64B20C0F2000000F0A6FC2A
:1006400044E09DF807200020114600F07FFA41F6B3
:10065000B650C0F2000000F099FC9DF8070000F0D1
:10066000A7FC41F64B20C0F2000000F08FFC2DE00B
:100670009DF807100022084600F068FA41F64B503A
:10068000C0F2000000F082FC9DF8070000F090FC32
:1006900041F64B20C0F2000000F078FC16E09DF817
:1006A00007201046114600F051FA41F66750C0F29B
:1006B000000000F06BFC9DF8070000F079FC41F6AB
:1006C0004B20C0F2000000F061FCFFE702B080BDEB
:1006D00080B582B08DF807009DF8070062380146AA
:1006E0000091172800F29E800099DFE801F0416533
:1006F0000C9B9B2F9B9B9B9B9B9B9B9B779B1D9BE7
:100700009B9B9B899B5340F2ED00C2F200000022AC
:1007100002701046114600F019FA41F6AB30C0F2F3
:10072000000000F033FC84E040F2ED01C2F2000171
:100730000120087064200022114600F007FA41F6FB
:10074000B920C0F2000000F021FC72E040F2ED019F
:10075000C2F200010220087000216422084600F065
:10076000F5F941F64940C0F2000000F00FFC60E0EE
:1007700040F2ED01C2F20001032008706421002262
:10078000104600F0E3F941F67D30C0F2000000F0C1
:10079000FDFB4EE040F2ED01C2F2000104200870C2
:1007A00000216422104600F0D1F941F60850C0F251
:1007B000000000F0EBFB3CE040F2ED01C2F2000172
:1007C0000520087000206422114600F0BFF941F6B0
:1007D0003140C0F2000000F0D9FB2AE040F2ED0108
:1007E000C2F200010620087064210022084600F0D1
:1007F000ADF941F64A30C0F2000000F0C7FB18E046
:1008000040F2ED01C2F20001072008706422104698
:10081000114600F09BF941F66430C0F2000000F090
:10082000B5FB06E041F6D440C0F2000000F0AEFB9C
:10083000FFE702B080BD000080B582B08DF80700F0
:100840009DF8070062380146009117283ED80099AC
:10085000DFE801F01E2A0C3C3C183C3C3C3C3C3C94
:100860003C3C303C123C3C3C3C363C240022104694
:10087000114600F06BF929E064200022114600F0D7
:1008800065F923E000216422084600F05FF91DE0CD
:1008900064210022104600F059F917E0002164227B
:1008A000104600F053F911E000206422114600F0D8
:1008B0004DF90BE064210022084600F047F905E0FD
:1008C00064221046114600F041F9FFE702B080BDF6
:1008D00081B04EF27001C4F20F010091086840F03F
:1008E00000400860086840F4006008604EF2600252
:1008F000C4F20F02106820F4F8601060106800F570
:10090000A8601060086820F070000860086808603F
:10091000086820F400500860086840F080400860D3
:100920000868072262F39C500860FFE74EF250000F
:10093000C4F20F0000684006002801D4FFE7F5E785
:100940004EF27001C4F20F01086820F400600860E4
:1009500001B0704710B54EF24061C4F20F01086853
:1009600040F0020008604EF20861C4F20F0108680E
:1009700040F020000860FFE74EF60820C4F20F00A8
:1009800000688006002801D4FFE7F5E745F2205112
:10099000C4F2020144F24B30C4F64F40086045F205
:1009A0002451C4F20201086840F01F00086045F2BB
:1009B000004CC4F2020CDCF8000040F00E00CCF851
:1009C000000045F21C53C4F20203186840F00E0008
:1009D000186045F22852C4F20202106820F00E009E
:1009E000106045F22041C4F20201086840F00E0098
:1009F000086045F22C5EC4F2020EDEF8000040F200
:100A0000555464F30F10CEF80000DCF8000020F01D
:100A10001100CCF80000186840F011001860106850
:100A200020F011001060086820F01100086045F205
:100A30001051C4F20201086840F01100086045F24C
:100A40000441C4F20201086820F01100086045F278
:100A50000841C4F20201086820F01100086045F264
:100A60000C41C4F20201086820F01100086045F250
:100A70001C41C4F202011120086045F21041C4F289
:100A80000201086840F0110008604EF21C41CEF2ED
:100A900000010868402262F3174008604EF200111E
:100AA000CEF20001086840F08040086049F2C00CB6
:100AB000C4F2020C0020CCF8000049F2E401C4F2B8
:100AC000020140F608430B6049F2D001C4F2020172
:100AD0004CF24F320A6049F2DC01C4F202010860B4
:100AE000DCF8001041F00101CCF8001049F20011CF
:100AF000C4F20201086049F2201EC4F2020E4FF057
:100B0000C80CCEF800C049F2241CC4F2020CCCF888
:100B1000003049F21013C4F202031A6049F21812AD
:100B2000C4F20202106049F21C12C4F20202106008
:100B3000086840F00100086049F20801C4F20201AF
:100B4000086840F0E000086010BD000085B08DF836
:100B500013008DF812108DF811204CF250300390D4
:100B60009DF8130018B9FFE70020029020E09DF8DF
:100B70001300642804D1FFE74CF24E30029016E0D7
:100B800003989DF81310484348F21F51C5F2EB112A
:100B9000A0FB01104009029002984CF24F318842AC
:100BA00004D3FFE74CF24E300290FFE7FFE7FFE788
:100BB0009DF8120018B9FFE70020019020E09DF891
:100BC0001200642804D1FFE74CF24E30019016E089
:100BD00003989DF81210484348F21F51C5F2EB11DB
:100BE000A0FB01104009019001984CF24F3188425E
:100BF00004D3FFE74CF24E300190FFE7FFE7FFE739
:100C00009DF8110018B9FFE70020009020E09DF842
:100C10001100642804D1FFE74CF24E30009016E03A
:100C200003989DF81110484348F21F51C5F2EB118B
:100C3000A0FB01104009009000984CF24F3188420F
:100C400004D3FFE74CF24E300090FFE7FFE7FFE7E9
:100C5000029849F2DC01C4F202010860019849F2ED
:100C60001811C4F202010860009849F21C11C4F284
:100C70000201086005B0704780B5FFF729FEFFF755
:100C800069FE00F0DDF800F007FA80BD80B582B0A3
:100C90004CF23C00C4F200000068C00600285ED59B
:100CA000FFE7FFE74CF21800C4F200000068C0063E
:100CB00000284DD4FFE74CF20000C4F200000068A9
:100CC0008DF807009DF807005E2837D1FFE740F256
:100CD0006000C2F200000078022810D0FFE740F266
:100CE0006000C2F200000078032808D0FFE740F25D
:100CF0006000C2F20000007804281FD1FFE740F234
:100D00006100C2F2000000220092027040F2EB008B
:100D1000C2F20000027040F2EC00C2F20000027069
:100D200010461146FFF712FF5E2000F04DFA0098C2
:100D300040F26001C2F20001087008E09DF807105F
:100D400040F26200C2F2000000F02CFDFFE7A9E7CC
:100D50004CF24401C4F2000110200860FFE74CF29D
:100D60003C00C4F2000000688006002807D5FFE7B9
:100D70004CF24401C4F2000120200860FFE702B0F9
:100D800080BD000080B582B0FFE740F26200C2F291
:100D900000000DF1070100F0D9FC08B9FFE7F4E706
:100DA0009DF8070002B080BD80B584B0002003909C
:100DB0000290FFF7E7FF8DF80700FFE79DF80700B7
:100DC0000D283AD0FFE79DF80700302816DBFFE733
:100DD0009DF80700392811DCFFE7039800EB80013C
:100DE0009DF8070000EB4100303803900298013075
:100DF00002909DF8070000F0B1F819E09DF8070097
:100E0000082814D1FFE7029888B1FFE703984CF651
:100E1000CD41CCF6CC41A0FB0110C0080390029854
:100E2000013802909DF8070000F098F8FFE7FFE70F
:100E3000FFF7A8FF8DF80700C0E7039804B080BD56
:100E400080B54EF21861C4F20F01086840F001004D
:100E500008604EF20861C4F20F01086840F001001A
:100E60000860FFE74EF60820C4F20F000068C007D4
:100E700008B9FFE7F6E740F26200C2F2000000F0B6
:100E800087FC4CF23001C4F20001086820F0010038
:100E900008604CF22402C4F2000240F245101060D7
:100EA0004CF22802C4F20002212010604CF22C0205
:100EB000C4F20002602010604CF24402C4F200024E
:100EC00040F2FF7010604CF23802C4F200020020C1
:100ED000106044F22043C4F20003186840F003009D
:100EE000186044F21C53C4F20003186840F0030079
:100EF000186044F22C53C4F2000318684FF0110C30
:100F00006CF30700186044F22853C4F20003186819
:100F100020F003001860106840F0100010604EF2DE
:100F20000442CEF20002106820F4604010604EF2DD
:100F30000012CEF20002106840F020001060086835
:100F400040F201321043086080BD000080B50D20E2
:100F500000F004F80A2000F001F880BD81B08DF89F
:100F60000300FFE74CF21800C4F20000006880069E
:100F7000002801D5FFE7F5E79DF803004CF20001DA
:100F8000C4F20001086001B07047000080B582B073
:100F90000190FFE70198007840B1FFE701980078E1
:100FA000FFF7DCFF019801300190F3E702B080BD4C
:100FB00080B582B0019001980A2816D3FFE7019806
:100FC0004CF6CD41CCF6CC410091A0FB0110C008FD
:100FD000FFF7EEFF00990198A0FB0121C90801EB82
:100FE0008101A0EB41000190FFE701983030C0B2D1
:100FF000FFF7B4FF02B080BD80B540F2A600C2F298
:10100000000000F0F7FB80F0010080BD80B53C20BF
:10101000C4F201000068C00600281BD5FFE7FFE707
:101020001820C4F201000068C00600280CD4FFE7B5
:101030000020C4F201000068C1B240F2A600C2F272
:10104000000000F00FFCEBE74421C4F20101102086
:101050000860FFE73C20C4F2010000688006002819
:1010600006D5FFE74421C4F2010120200860FFE714
:1010700080BD000080B582B0FFE740F2A600C2F25A
:1010800000000DF1070100F0C1FB08B9FFE7F4E72C
:101090009DF8070002B080BD80B54EF21861C4F221
:1010A0000F01086840F0100008604EF20861C4F2B9
:1010B0000F01086840F004000860FFE74EF60820C2
:1010C000C4F20F0000684007002801D4FFE7F5E7ED
:1010D00040F2A600C2F2000000F0BAFB46F2205136
:1010E000C4F2000144F24B30C4F64F40086046F2AF
:1010F0002451C4F20001086840F03000086030213B
:10110000C4F20101086820F0010008602422C4F242
:101110000102D92010602820C4F2010001230360DD
:101120002C22C4F20102602010604422C4F20102A9
:1011300040F2FF7010603822C4F2010200201060FB
:1011400046F2204CC4F2000CDCF8000040F0300005
:10115000CCF8000046F21C5CC4F2000CDCF8000085
:1011600040F03000CCF8000046F22C5CC4F2000CD9
:10117000DCF800004FF0110E6EF31740CCF80000C1
:1011800046F2285CC4F2000CDCF8000020F03000CD
:10119000CCF80000106840F0100010604EF23C42A5
:1011A000CEF20002106863F35F7010604EF204121A
:1011B000CEF20002106840F080501060086840F2E3
:1011C00001321043086080BD81B08DF80300FFE755
:1011D0001820C4F2010000688006002801D5FFE74E
:1011E000F6E79DF803000021C4F20101086001B098
:1011F0007047000083B08DF80B009DF80B000828A5
:1012000004DBFFE700208DF80B00FFE746F27930A2
:10121000C7F27070019047F26420C6F26720009018
:101220009DF80B106846405C03B0704780B588B0ED
:1012300000200790FFF720FD6420FFF711F9FFE77A
:1012400040F26000C2F200000078014605910428D7
:1012500000F26F820599DFE811F005006C000501CE
:101260005401EF01FFF772FE41F69220C0F2000038
:10127000FFF78CFE41F65920C0F20000FFF786FE12
:1012800041F6FC40C0F20000FFF780FE41F6E3307B
:10129000C0F20000FFF77AFE41F6C330C0F2000052
:1012A000FFF774FE41F60140C0F20000FFF76EFE4A
:1012B00041F6FE20C0F20000FFF768FE41F6E400B0
:1012C000C0F20000FFF762FEFFF740FEFFF75AFD95
:1012D000014640F2EA00C2F200000490017000787A
:1012E000FFF73CFE04980078312807D1FFE740F271
:1012F0006001C2F200010120087019E040F2EA002A
:10130000C2F200000078322807D1FFE740F2600106
:10131000C2F200010220087009E040F2EA00C2F2C5
:1013200000000078332801D1FFE7FFE7FFE7FFE780
:10133000FFE1FFF70BFE41F6EE40C0F20000FFF7C1
:1013400025FE41F6B400C0F20000FFF71FFE41F693
:101350003020C0F20000FFF719FE41F67710C0F20E
:101360000000FFF713FE41F6E440C0F20000FFF773
:101370000DFEFFF7EBFDFFF705FD014640F2EA0029
:10138000C2F20000039001700078FFF7E7FDFFF75D
:10139000DDFD0398007831282FD1FFE7FFF7D6FD58
:1013A00041F66120C0F20000FFF7F0FD41F6FA00BF
:1013B000C0F20000FFF7EAFDFFF7C8FDFFF7E2FC0F
:1013C000014640F2EA00C2F2000001700078FFF727
:1013D000C5FDFFF7D7FC8DF81B00FFF7B7FD9DF8A3
:1013E0001B000D2808D1FFE740F2EA00C2F200001E
:1013F0000078FFF76DF9FFE733E040F2EA00C2F250
:1014000000000078322813D1FFE7FFF79FFD41F677
:101410009140C0F20000FFF7B9FDFFF7C5FC8DF861
:101420001A00FFF793FD9DF81A00FFF783F817E005
:1014300040F2EA00C2F20000007833280FD1FFE743
:1014400041F6CC10C0F20000FFF7A0FD40F26001B1
:10145000C2F2000100200870FFF778FDFFE7FFE708
:10146000FFE766E140F26101C2F20001002008706E
:1014700040F2EB01C2F20001087040F2EC01C2F24E
:1014800000010870FFF762FD41F62130C0F2000054
:10149000FFF77CFD41F6F310C0F20000FFF776FD88
:1014A00041F66240C0F20000FFF770FD41F64810BF
:1014B000C0F20000FFF76AFD41F60B20C0F2000009
:1014C000FFF764FD41F6D020C0F20000FFF75EFD9B
:1014D00041F6DE10C0F20000FFF758FD41F69530EE
:1014E000C0F20000FFF752FD6420FFF7A5F932209B
:1014F000FFF76AFE40F26001C2F2000103200870AB
:1015000017E140F2EB00C2F200000078C0070028AB
:1015100000F06980FFE740F2EB01C2F20001002019
:10152000087040F2EC00C2F200000078FFF762FEA3
:101530008DF819009DF81900FFF77EF941F6225049
:10154000C0F20000FFF722FD9DF819006238014645
:101550000291172846D80299DFE801F0212F0C44A8
:10156000441A4444444444444444364413444444A4
:10157000443D442841F6BC30C0F20000FFF706FDB0
:1015800030E041F6CA20C0F20000FFF7FFFC29E07E
:1015900041F65A40C0F20000FFF7F8FC22E041F6A5
:1015A0008E30C0F20000FFF7F1FC1BE041F619504D
:1015B000C0F20000FFF7EAFC14E041F64240C0F23E
:1015C0000000FFF7E3FC0DE041F65B30C0F20000E5
:1015D000FFF7DCFC06E041F67530C0F20000FFF7D3
:1015E000D5FCFFE7FFE740F26100C2F2000000789F
:1015F000C00700B3FFE740F26101C2F20001002022
:10160000087040F2EC00C2F200000078FFF7F2FD33
:101610008DF818009DF81800FFF7D6FD41F6A510CB
:10162000C0F20000FFF7B2FC40F26001C2F200011C
:1016300004200870FFE77CE0FFF7DEFC002800F0E4
:101640007780FFE7FFF716FD014640F2EE00C2F299
:101650000000009001700078FFF7EEF80098007825
:10166000FEF7BCFE40F2EC01C2F20001087041F648
:101670002250C0F20000FFF789FC00980078623821
:1016800001460191172846D80199DFE801F0212F82
:101690000C44441A444444444444444436441344AB
:1016A0004444443D442841F6BC30C0F20000FFF7FA
:1016B0006DFC30E041F6CA20C0F20000FFF766FC86
:1016C00029E041F65A40C0F20000FFF75FFC22E03B
:1016D00041F68E30C0F20000FFF758FC1BE041F6E7
:1016E0001950C0F20000FFF751FC14E041F64240EF
:1016F000C0F20000FFF74AFC0DE041F65B30C0F29B
:101700000000FFF743FC06E041F67530C0F2000030
:10171000FFF73CFCFFE741F6F310C0F20000FFF7D3
:1017200035FC40F26001C2F2000103200870FFE7BF
:10173000FFE785E581B0009000980088009949880E
:10174000401AB0FA80F0400901B0704780B584B00B
:10175000029001910298FFF7EDFF20B1FFE7002012
:101760008DF80F0010E00298418808440079019933
:10177000087002984088013000F03F0002994880CC
:1017800001208DF80F00FFE79DF80F0004B080BD29
:1017900081B000900099002008800099488001B035
:1017A0007047000083B001908DF803100198008805
:1017B000013000F03F00ADF80000BDF800000199D5
:1017C0004988884204D1FFE700208DF80B000DE026
:1017D0009DF8030001990A8811440871BDF80000C2
:1017E0000199088001208DF80B00FFE79DF80B00A0
:1017F00003B0704781B00090009800880099498834
:10180000401AB0FA80F0400901B0704780B584B04A
:10181000029001910298FFF7EDFF20B1FFE7002051
:101820008DF80F0010E00298418808440079019972
:10183000087002984088013000F03F00029948800B
:1018400001208DF80F00FFE79DF80F0004B080BD68
:1018500081B000900099002008800099488001B074
:101860007047000083B001908DF803100198008844
:10187000013000F03F00ADF80000BDF80000019914
:101880004988884204D1FFE700208DF80B000DE065
:101890009DF8030001990A8811440871BDF8000001
:1018A0000199088001208DF80B00FFE79DF80B00DF
:1018B00003B07047506C656173652073656C656338
:1018C0007420616E206F7074696F6E2066726F6D28
:1018D0002074686520666F6C6C6F77696E67206C2A
:1018E0006973742028656E7465722031206F7220D0
:1018F00032206F722033290D0A0064286461726BF4
:10190000292C207228726564292C2067286772654B
:10191000656E292C206228626C7565292C20792837
:1019200079656C6C6F77292C2063286379616E2947
:101930002C207028707572706C65292C20772877A0
:1019400068697465290D0A0074686520666F6C6C9F
:101950006F77696E6720636F6C6F7220776865655B
:101960006C3A204461726B2C205265642C204772C3
:1019700065656E2C0D0A00323A204368616E67651A
:1019800020746865206272696768746E657373207D
:101990006F662063757272656E74204C45442873BF
:1019A000292E0D0A0057616974696E6720666F728F
:1019B00020636F6C6F7220636F64652066726F6D59
:1019C000204D435532202E2E2E0D0A004578697485
:1019D000696E672E2E2E2E2E2E2E2E0D0A00746866
:1019E0006520636F6C6F7220746F204D4355322EEB
:1019F0000D0A00496E20636F6C6F72205768656531
:101A00006C2053746174652E0D0A00426C75652C50
:101A10002059656C6C6F772C204379616E2C2050B7
:101A20007572706C652C2057686974652E0D0A00FC
:101A3000313A2043686F6F736520616E64204C45B6
:101A40004420436F6C6F722E0D0A006272696768E2
:101A5000746E6573732E0D0A004D435520310D0AC7
:101A600000506C656173652053656C65637420611B
:101A700020636F6C6F722066726F6D2074686520D2
:101A8000666F6C6C6F77696E67206C6973743A0D62
:101A90000A0057656C636F6D6520746F2043454382
:101AA00053203434372050726F6A656374203220BB
:101AB0002D20554152540D0A00436F6C6F72206304
:101AC00068616E67656420746F205265640D0A005A
:101AD0004F6E6365206120636F6C6F7220697320A5
:101AE00073656C65637465642C2070726573732014
:101AF00073773120746F2073656E640D0A00506C2B
:101B0000656173652063686F6F736520636F6D6DCA
:101B1000756E69636174696F6E206D6F64650D0A1F
:101B2000004D6F64652032204D4355313A2070726C
:101B3000657373205E20746F206578697420746803
:101B40006973206D6F64650D0A00436F6C6F7220BE
:101B50006368616E67656420746F20507572706C85
:101B6000650D0A00436F6C6F72206368616E676574
:101B70006420746F2057686974650D0A00436F6CA8
:101B80006F72206368616E67656420746F20426CB9
:101B900075650D0A0043757272656E7420636F6C13
:101BA0006F723A204461726B0D0A00436F6C6F7262
:101BB000206368616E67656420746F204461726B96
:101BC0000D0A00323A204D435531203C2D2D3E2048
:101BD0004D43553220436F6C6F7220576865656CBA
:101BE0000D0A00313A205043203C2D2D3E204D431C
:101BF0005531204C454420436F6E74726F6C0D0A52
:101C000000333A20504331203C2D2D3E204D43558A
:101C100031203C2D2D3E204D435532203C2D2D3E74
:101C200020504332204368617420526F6F6D0D0A5B
:101C300000436F6C6F72206368616E676564207427
:101C40006F204379616E0D0A00436F6C6F722063E1
:101C500068616E67656420746F20477265656E0DFC
:101C60000A00506C65617365207072657373207330
:101C7000773220746F20676F207468726F756768A1
:101C80002074686520636F6C6F727320696E0D0A33
:101C900000506C6561736520656E7465722061200B
:101CA000646563696D616C206E756D626572206636
:101CB000726F6D203020746F2031303020666F6C71
:101CC0006C6F77656420627920612072657475722B
:101CD0006E0D0A00496E76616C696420636F6C6FEB
:101CE000720D0A00333A20457869740D0A004D6F71
:101CF00064652031204D656E750D0A004D61696E79
:101D0000204D656E750D0A00436F6C6F722063681D
:101D1000616E67656420746F2059656C6C6F770D18
:101D20000A0043757272656E7420636F6C6F723A4D
:101D30002000526564204C656420697320646973D7
:101D4000706C617965642061742000507572706CEC
:101D500065204C656420697320646973706C6179D7
:101D6000656420617420005768697465204C65645F
:101D700020697320646973706C6179656420617493
:101D80002000426C7565204C65642069732064698D
:101D900073706C6179656420617420004461726BBA
:101DA000204C656420697320646973706C61796587
:101DB0006420617420004379616E204C6564206961
:101DC0007320646973706C617965642061742000AC
:101DD000477265656E204C65642069732064697381
:101DE000706C61796564206174200059656C6C6F5A
:101DF00077204C656420697320646973706C617925
:101E00006564206174200000181E0000000000209E
:081E1000F0040000EC020000E8
:040000050000028570
:00000001FF
