:020000040000FA
:10000000F00400206D020000710200007302000085
:100010007502000077020000790200000000000075
:100020000000000000000000000000007B02000053
:100030007D020000000000007F020000810200003D
:10004000830200008302000083020000830200009C
:100050008302000009070000830200008302000001
:10006000830200008302000083020000830200007C
:10007000830200008302000083020000830200006C
:10008000830200008302000083020000830200005C
:10009000830200008302000083020000830200004C
:1000A000830200008302000083020000830200003C
:1000B00083020000830200000904000083020000A4
:1000C000830200008302000083020000830200001C
:1000D000830200008302000083020000830200000C
:1000E00083020000830200008302000083020000FC
:1000F00083020000830200008302000083020000EC
:1001000083020000830200008302000083020000DB
:1001100083020000830200008302000083020000CB
:1001200083020000830200008302000083020000BB
:1001300083020000E5080000830200008302000043
:1001400000000000000000000000000000000000AF
:10015000830200008302000083020000830200008B
:10016000000000000000000000000000000000008F
:10017000000000000000000000000000000000007F
:10018000000000000000000000000000000000006F
:10019000000000000000000000000000000000005F
:1001A000000000000000000000000000000000004F
:1001B000830200008302000083020000830200002B
:1001C000830200008302000083020000830200001B
:1001D000830200008302000083020000830200000B
:1001E00083020000830200008302000083020000FB
:1001F00083020000830200008302000083020000EB
:10020000830200008302000083020000000000005F
:1002100083020000830200008302000083020000CA
:1002200083020000830200008302000083020000BA
:1002300083020000830200008302000083020000AA
:10024000830200008302000083020000830200009A
:10025000830200008302000083020000830200008A
:1002600083020000830200008302000000F00AB84D
:10027000FEE7FEE7FEE7FEE7FEE7FEE7FEE7FEE756
:10028000FEE7FEE700F002F800F042F814A696E858
:10029000000CB244B344DA4501D100F039F8BAE8B1
:1002A0000F000FA696E83000A5EB040504EB060747
:1002B000AAEB0704A7F101074FEA15154FEA34141A
:1002C000A4F10104AC4201D300F022F813F0010FB5
:1002D00018BFFB1A43F0010300F001F8DBE71847F1
:1002E000540D0000640D000070470000002300243E
:1002F00000250026103A28BF78C1FBD8520728BF36
:1003000030C148BF0B6070471FB51FBD10B510BD91
:1003100000F029F81146FFF7F7FF00F0D5FB00F0D9
:1003200047F803B4FFF7F2FF03BC00F04FF80000FA
:1003300072B6704762B67047EFF3108072B67047BE
:1003400080F31088704730BF704702480249014A65
:10035000024B7047F0000020F0040020F000002065
:10036000704770477047754600F02CF8AE460500A0
:100370006946534620F00700854618B020B5FFF7C0
:10038000E4FFBDE820404FF000064FF000074FF0BB
:1003900000084FF0000BAC46ACE8C009ACE8C0095F
:1003A000ACE8C009ACE8C00921F007018D467047F0
:1003B00010B50446AFF300802046BDE81040FFF7BB
:1003C000B0BF00000048704700000020014918201D
:1003D000ABBEFEE7260002007047000082B001902D
:1003E000FFE70198411E019158B1FFE743F2D400A5
:1003F0000090FFE70098411E009108B1FFE7F9E780
:10040000EFE702B07047000080B582B045F21840B7
:10041000C4F2020000680190019845F21C41C4F248
:10042000020108609DF80400C00600280AD5FFE715
:100430001420FFF7D3FF40F26101C2F20001012056
:100440000870FFE79DF80400C007B0B1FFE7142073
:10045000FFF7C4FF40F2EA00C2F200000178013168
:1004600001700078082807D1FFE740F2EA01C2F2E4
:10047000000100200870FFE7FFE702B080BD000028
:1004800082B08DF8070045F2FC31C4F20201086821
:1004900020F00E0008609DF80700623801460091C8
:1004A000172848D80099DFE801F023310C46461C94
:1004B0004646464646464646384615464646463F22
:1004C000462A45F2FC31C4F20201086820F00E0011
:1004D000086030E045F2FC31C4F2020102200860FD
:1004E00029E045F2FC31C4F202010820086022E054
:1004F00045F2FC31C4F20201042008601BE045F221
:10050000FC31C4F202010A20086014E045F2FC311B
:10051000C4F202010C2008600DE045F2FC31C4F287
:1005200002010620086006E045F2FC31C4F2020137
:100530000E200860FFE702B07047000081B04EF265
:100540007001C4F20F010091086840F0004008609B
:10055000086840F4006008604EF26002C4F20F02C6
:10056000106820F4F8601060106800F5A860106052
:10057000086820F07000086008680860086820F4C7
:1005800000500860086840F0804008600868072252
:1005900062F39C500860FFE74EF25000C4F20F0077
:1005A00000684006002801D4FFE7F5E74EF270012D
:1005B000C4F20F01086820F40060086001B07047C1
:1005C0004EF20861C4F20F01086840F02000086094
:1005D000FFE74EF20860C4F20F00006800F0200050
:1005E000202801D0FFE7F4E745F22051C4F20201D0
:1005F00044F24B30C4F64F40086045F22451C4F237
:100600000201086840F01F00086045F2004CC4F287
:10061000020CDCF8000040F00E00CCF8000045F2BF
:100620001C53C4F20203186840F00E00186045F233
:100630002852C4F20202106820F00E00106045F249
:100640002041C4F20201086820F00E000860DCF8C6
:10065000000020F01100CCF80000186840F01100F4
:100660001860106820F011001060086820F0110078
:10067000086045F21051C4F20201086840F0110010
:10068000086045F20441C4F20201086820F011003C
:10069000086045F20841C4F20201086820F0110028
:1006A000086045F20C41C4F20201086820F0110014
:1006B000086045F21C41C4F202011120086045F2B5
:1006C0001041C4F20201086840F0110008604EF2C7
:1006D0001C41CEF200010868402262F31740086016
:1006E0004EF20011CEF20001086840F08040086030
:1006F0007047000080B5FFF721FFFFF761FF00F0B2
:1007000041F800F03BF980BD80B582B04CF23C006E
:10071000C4F200000068C006002821D5FFE7FFE70B
:100720004CF21800C4F200000068C006002810D483
:10073000FFE74CF20000C4F2000000688DF80700EB
:100740009DF8071040F26200C2F2000000F03CFB8E
:10075000E6E74CF24401C4F2000110200860FFE714
:100760004CF23C00C4F2000000688006002807D567
:10077000FFE74CF24401C4F2000120200860FFE7CB
:1007800002B080BD80B54EF21861C4F20F01086856
:1007900040F0010008604EF20861C4F20F010868E1
:1007A00040F001000860FFE74EF60820C4F20F0099
:1007B0000068C00708B9FFE7F6E740F26200C2F23E
:1007C000000000F0F7FA4CF23001C4F200010868B2
:1007D00020F0010008604CF22402C4F2000240F252
:1007E000451010604CF22802C4F200022120106073
:1007F0004CF22C02C4F20002602010604CF2440261
:10080000C4F2000240F2FF7010604CF23802C4F2F1
:1008100000020020106044F22043C4F20003186874
:1008200040F00300186044F21C53C4F2000318683F
:1008300040F00300186044F22C53C4F2000318681F
:100840004FF0110C6CF30700186044F22853C4F207
:100850000003186820F003001860106840F01000D2
:1008600010604EF20442CEF20002106820F46040A4
:1008700010604EF20012CEF20002106840F020002C
:100880001060086840F201321043086080BD00002B
:1008900081B08DF80300FFE74CF21800C4F20000AD
:1008A00000688006002801D5FFE7F5E79DF8030002
:1008B0004CF20001C4F20001086001B07047000072
:1008C00080B582B00190FFE70198007840B1FFE762
:1008D00001980078FFF7DCFF019801300190F3E701
:1008E00002B080BD80B541F23C00C4F20100006856
:1008F000C00600281ED5FFE7FFE741F21800C4F24A
:1009000001000068C00600280DD4FFE741F2000096
:10091000C4F201000068C1B240F2A600C2F20000B9
:1009200000F0B2FAE9E741F24401C4F201011020FB
:100930000860FFE741F23C00C4F201000068800655
:10094000002807D5FFE741F24401C4F2010120204D
:100950000860FFE780BD000080B582B0FFE740F28D
:10096000A600C2F200000DF1070100F061FA08B91B
:10097000FFE7F4E79DF8070002B080BD80B54EF2B6
:100980001861C4F20F01086840F0200008604EF2C0
:100990000861C4F20F01086840F010000860FFE72A
:1009A0004EF60820C4F20F000068C006002801D4EB
:1009B000FFE7F5E740F2A600C2F2000000F05AFAA5
:1009C00041F23001C4F20101086820F00100086022
:1009D00041F22402C4F20102D920106041F2280041
:1009E000C4F201000123036041F22C02C4F20102AF
:1009F0006020106041F24402C4F2010240F2FF7034
:100A0000106041F23802C4F201020020106044F28A
:100A1000204CC4F2020CDCF8000040F03000CCF8AE
:100A2000000044F21C5CC4F2020CDCF8000040F050
:100A30003000CCF8000044F22C5CC4F2020CDCF86C
:100A400000004FF0110E6EF31740CCF8000044F296
:100A5000285CC4F2020CDCF8000020F03000CCF876
:100A60000000106840F0100010604EF23C42CEF2E0
:100A70000002106863F34F3010604EF20412CEF2A1
:100A80000002106840F000501060086840F2013227
:100A90001043086080BD000081B08DF80300FFE7BF
:100AA00041F21800C4F2010000688006002801D558
:100AB000FFE7F5E79DF8030041F20001C4F20101F0
:100AC000086001B07047000080B586B00020059036
:100AD000FFF710FE6420FFF781FCFFE740F26000A3
:100AE000C2F20000007801460391032800F2608101
:100AF0000399DFE811F004002100B0005C01FFF76A
:100B00002BFF8DF813009DF81300322813D1FFE757
:100B100040F6D770C0F20000FFF7D2FE40F6D86072
:100B2000C0F20000FFF7CCFE40F26001C2F200010B
:100B300001200870FFE73BE1FFF70EFF8DF813007F
:100B40009DF813005E280FD1FFE745F2FC31C4F297
:100B50000201086820F00E00086040F26001C2F255
:100B600000010020087023E19DF81300FFF788FCC6
:100B700040F6D770C0F20000FFF7A2FE40F64070CA
:100B8000C0F20000FFF79CFE40F65870C0F2000073
:100B9000FFF796FE40F6FF60C0F20000FFF790FE00
:100BA00041F22200C0F20000FFF78AFE9DF8130018
:100BB000623801460291172846D80299DFE801F011
:100BC000212F0C44441A444444444444444436448D
:100BD00013444444443D442841F20300C0F2000061
:100BE000FFF76EFE30E040F6E570C0F20000FFF760
:100BF00067FE29E041F21100C0F20000FFF760FE3D
:100C000022E040F6FC70C0F20000FFF759FE1BE046
:100C100041F21900C0F20000FFF752FE14E041F269
:100C20000A00C0F20000FFF74BFE0DE040F6EB704B
:100C3000C0F20000FFF744FE06E040F6F470C0F298
:100C40000000FFF73DFEFFE740F26001C2F2000145
:100C500002200870ACE040F26100C2F200000078AF
:100C6000C007002800F0A280FFE740F26101C2F255
:100C700000010020087040F2EA00C2F20000007893
:100C800001460191072826D80199DFE801F0040800
:100C90000C1014181C2064208DF812001BE0722028
:100CA0008DF8120017E067208DF8120013E0622023
:100CB0008DF812000FE079208DF812000BE0632010
:100CC0008DF8120007E070208DF8120003E0772005
:100CD0008DF81200FFE79DF81200FFF7DDFE40F6E9
:100CE000D770C0F20000FFF7EBFD41F22200C0F226
:100CF0000000FFF7E5FD9DF8120062380146009103
:100D0000172846D80099DFE801F0212F0C44441A37
:100D10004444444444444444364413444444443DD9
:100D2000442841F20300C0F20000FFF7C9FD30E0A3
:100D300040F6E570C0F20000FFF7C2FD29E041F285
:100D40001100C0F20000FFF7BBFD22E040F6FC708E
:100D5000C0F20000FFF7B4FD1BE041F21900C0F241
:100D60000000FFF7ADFD14E041F20A00C0F2000000
:100D7000FFF7A6FD0DE040F6EB70C0F20000FFF7B4
:100D80009FFD06E040F6F470C0F20000FFF798FD0A
:100D9000FFE740F6D860C0F20000FFF791FD40F297
:100DA0006001C2F2000101200870FFE700E0FFE7E8
:100DB00094E6000081B0009000990020088000991E
:100DC000488001B07047000083B001908DF8031097
:100DD00001980088013000F03F00ADF80000BDF838
:100DE000000001994988884204D1FFE700208DF86E
:100DF0000B000DE09DF8030001990A881144087169
:100E0000BDF800000199088001208DF80B00FFE774
:100E10009DF80B0003B0704781B0009000980088E7
:100E200000994988401AB0FA80F0400901B0704733
:100E300080B584B0029001910298FFF7EDFF20B1D8
:100E4000FFE700208DF80F0010E002984188084469
:100E500000790199087002984088013000F03F0045
:100E60000299488001208DF80F00FFE79DF80F00E0
:100E700004B080BD81B000900099002008800099E6
:100E8000488001B07047000083B001908DF80310D6
:100E900001980088013000F03F00ADF80000BDF877
:100EA000000001994988884204D1FFE700208DF8AD
:100EB0000B000DE09DF8030001990A8811440871A8
:100EC000BDF800000199088001208DF80B00FFE7B4
:100ED0009DF80B0003B0704757616974696E672015
:100EE000666F7220636F6C6F7220636F646520663B
:100EF000726F6D204D435531202E2E2E0D0A004F5E
:100F00006E6365206120636F6C6F7220697320735C
:100F1000656C65637465642C2070726573732073EF
:100F2000773120746F2073656E6420746865206368
:100F30006F6C6F7220746F204D4355312E0D0A0077
:100F4000496E20636F6C6F7220576865656C205323
:100F5000746174652E0D0A00506C656173652070B4
:100F6000726573732073773220746F20676F2074FB
:100F700068726F7567682074686520636F6C6F7244
:100F80007320696E2074686520666F6C6C6F77697A
:100F90006E6720636F6C6F7220776865656C3A20AE
:100FA0004461726B2C205265642C20477265656E1B
:100FB0002C20426C75652C2059656C6C6F772C2049
:100FC0004379616E2C20507572706C652C205768C7
:100FD0006974652E0D0A004D6F64652032204D4303
:100FE00055320D0A005265640D0A00507572706C1E
:100FF000650D0A0057686974650D0A00426C7565D5
:101000000D0A004461726B0D0A004379616E0D0A8E
:1010100000477265656E0D0A0059656C6C6F770D3F
:101020000A0043757272656E7420636F6C6F723A5A
:10103000200000004410000000000020F004000028
:04104000EC020000BE
:040000050000028570
:00000001FF
