:020000040000FA
:10000000F00400206D020000710200007302000085
:100010007502000077020000790200000000000075
:100020000000000000000000000000007B02000053
:100030007D020000000000007F020000810200003D
:10004000830200008302000083020000830200009C
:1000500083020000A5070000830200008302000065
:10006000830200008302000083020000830200007C
:10007000830200008302000083020000830200006C
:10008000830200008302000083020000830200005C
:10009000830200008302000083020000830200004C
:1000A000830200008302000083020000830200003C
:1000B00083020000830200000904000083020000A4
:1000C000830200008302000083020000830200001C
:1000D000830200008302000083020000830200000C
:1000E00083020000830200008302000083020000FC
:1000F00083020000830200008302000083020000EC
:1001000083020000830200008302000083020000DB
:1001100083020000830200008302000083020000CB
:1001200083020000830200008302000083020000BB
:1001300083020000A5090000830200008302000082
:1001400000000000000000000000000000000000AF
:10015000830200008302000083020000830200008B
:10016000000000000000000000000000000000008F
:10017000000000000000000000000000000000007F
:10018000000000000000000000000000000000006F
:10019000000000000000000000000000000000005F
:1001A000000000000000000000000000000000004F
:1001B000830200008302000083020000830200002B
:1001C000830200008302000083020000830200001B
:1001D000830200008302000083020000830200000B
:1001E00083020000830200008302000083020000FB
:1001F00083020000830200008302000083020000EB
:10020000830200008302000083020000000000005F
:1002100083020000830200008302000083020000CA
:1002200083020000830200008302000083020000BA
:1002300083020000830200008302000083020000AA
:10024000830200008302000083020000830200009A
:10025000830200008302000083020000830200008A
:1002600083020000830200008302000000F00AB84D
:10027000FEE7FEE7FEE7FEE7FEE7FEE7FEE7FEE756
:10028000FEE7FEE700F002F800F042F814A696E858
:10029000000CB244B344DA4501D100F039F8BAE8B1
:1002A0000F000FA696E83000A5EB040504EB060747
:1002B000AAEB0704A7F101074FEA15154FEA34141A
:1002C000A4F10104AC4201D300F022F813F0010FB5
:1002D00018BFFB1A43F0010300F001F8DBE71847F1
:1002E000980F0000A80F00007047000000230024B2
:1002F00000250026103A28BF78C1FBD8520728BF36
:1003000030C148BF0B6070471FB51FBD10B510BD91
:1003100000F029F81146FFF7F7FF00F051FC00F05C
:1003200047F803B4FFF7F2FF03BC00F04FF80000FA
:1003300072B6704762B67047EFF3108072B67047BE
:1003400080F31088704730BF704702480249014A65
:10035000024B7047F0000020F0040020F000002065
:10036000704770477047754600F02CF8AE460500A0
:100370006946534620F00700854618B020B5FFF7C0
:10038000E4FFBDE820404FF000064FF000074FF0BB
:1003900000084FF0000BAC46ACE8C009ACE8C0095F
:1003A000ACE8C009ACE8C00921F007018D467047F0
:1003B00010B50446AFF300802046BDE81040FFF7BB
:1003C000B0BF00000048704700000020014918201D
:1003D000ABBEFEE7260002007047000082B001902D
:1003E000FFE70198411E019158B1FFE743F2D400A5
:1003F0000090FFE70098411E009108B1FFE7F9E780
:10040000EFE702B07047000080B582B045F21840B7
:10041000C4F2020000680190019845F21C41C4F248
:10042000020108609DF80400C006002813D5FFE70C
:100430000F20FFF7D3FF40F2EC00C2F2000000787B
:10044000022807D1FFE740F26001C2F2000101205B
:100450000870FFE7FFE79DF80400C00728B3FFE737
:100460000F20FFF7BBFF40F2EC00C2F20000007863
:10047000022819D1FFE740F2EB00C2F20000017838
:10048000013101700078082807DBFFE740F2EB013B
:10049000C2F2000100200870FFE740F2EA01C2F258
:1004A000000101200870FFE7FFE702B080BD0000F7
:1004B00081B04EF27001C4F20F010091086840F063
:1004C00000400860086840F4006008604EF2600276
:1004D000C4F20F02106820F4F8601060106800F594
:1004E000A8601060086820F0700008600868086064
:1004F000086820F400500860086840F080400860F8
:100500000868072262F39C500860FFE74EF2500033
:10051000C4F20F0000684006002801D4FFE7F5E7A9
:100520004EF27001C4F20F01086820F40060086008
:1005300001B070474EF20861C4F20F01086840F044
:1005400020000860FFE74EF20860C4F20F00006868
:1005500000F02000202801D0FFE7F4E745F2205109
:10056000C4F2020144F24B30C4F64F40086045F239
:100570002451C4F20201086840F01F00086045F2EF
:10058000004CC4F2020CDCF8000040F00E00CCF885
:10059000000045F21C53C4F20203186840F00E003C
:1005A000186045F22852C4F20202106820F00E00D2
:1005B000106045F22041C4F20201086820F00E00EC
:1005C0000860DCF8000020F01100CCF8000018688A
:1005D00040F011001860106820F0110010600868E9
:1005E00020F01100086045F21051C4F202010868C1
:1005F00040F01100086045F20441C4F202010868AD
:1006000020F01100086045F20841C4F202010868B8
:1006100020F01100086045F20C41C4F202010868A4
:1006200020F01100086045F21C41C4F202011120C3
:10063000086045F21041C4F20201086840F0110060
:1006400008604EF21C41CEF200010868402262F3BD
:10065000174008604EF20011CEF20001086840F029
:10066000804008607047000080B582B08DF80700B8
:100670009DF80700623801460091172846D8009976
:10068000DFE801F0212F0C44441A4444444444441C
:100690004444364413444444443D442841F2FF104A
:1006A000C0F2000000F062F937E041F2B310C0F28E
:1006B000000000F05BF930E041F20D20C0F20000D4
:1006C00000F054F929E041F2F810C0F2000000F007
:1006D0004DF922E041F25E20C0F2000000F046F940
:1006E0001BE041F20620C0F2000000F03FF914E0E8
:1006F00041F2E710C0F2000000F038F90DE041F2DD
:10070000F010C0F2000000F031F906E041F24420A0
:10071000C0F2000000F02AF9FFE702B080BD00003F
:1007200080B582B040F26001C2F200010020019069
:10073000087040F2EA01C2F20001087040F2EB01D9
:10074000C2F20001087045F2FC31C4F202010868EF
:1007500020F00E00086000F0E9F841F28C10C0F2C1
:10076000000000F003F941F28510C0F2000000F033
:10077000FDF841F2E100C0F2000000F0F7F8019846
:1007800040F2EC01C2F20001087002B080BD00002E
:1007900080B5FFF78DFEFFF7CDFE00F041F800F0C9
:1007A0004DF980BD80B582B04CF23C00C4F200002F
:1007B0000068C006002821D5FFE7FFE74CF21800CB
:1007C000C4F200000068C006002810D4FFE74CF215
:1007D0000000C4F2000000688DF807009DF80710C3
:1007E00040F26200C2F2000000F076FBE6E74CF255
:1007F0004401C4F2000110200860FFE74CF23C0005
:10080000C4F2000000688006002807D5FFE74CF21C
:100810004401C4F2000120200860FFE702B080BD5F
:1008200080B54EF21861C4F20F01086840F0010073
:1008300008604EF20861C4F20F01086840F0010040
:100840000860FFE74EF60820C4F20F000068C007FA
:1008500008B9FFE7F6E740F26200C2F2000000F0DC
:1008600031FB4CF23001C4F20001086820F00100B5
:1008700008604CF22402C4F2000240F245101060FD
:100880004CF22802C4F20002212010604CF22C022B
:10089000C4F20002602010604CF24402C4F2000274
:1008A00040F2FF7010604CF23802C4F200020020E7
:1008B000106044F22043C4F20003186840F00300C3
:1008C000186044F21C53C4F20003186840F003009F
:1008D000186044F22C53C4F2000318684FF0110C56
:1008E0006CF30700186044F22853C4F20003186840
:1008F00020F003001860106840F0100010604EF205
:100900000442CEF20002106820F4604010604EF203
:100910000012CEF20002106840F02000106008685B
:1009200040F201321043086080BD000080B50D2008
:1009300000F004F80A2000F001F880BD81B08DF8C5
:100940000300FFE74CF21800C4F2000000688006C4
:10095000002801D5FFE7F5E79DF803004CF2000100
:10096000C4F20001086001B07047000080B582B099
:100970000190FFE70198007840B1FFE70198007807
:10098000FFF7DCFF019801300190F3E702B080BD72
:1009900080B540F2A600C2F2000000F0C5FA80F077
:1009A000010080BD80B541F23C00C4F20100006846
:1009B000C00600281ED5FFE7FFE741F21800C4F289
:1009C00001000068C00600280DD4FFE741F20000D6
:1009D000C4F201000068C1B240F2A600C2F20000F9
:1009E00000F0DAFAE9E741F24401C4F20101102013
:1009F0000860FFE741F23C00C4F201000068800695
:100A0000002807D5FFE741F24401C4F2010120208C
:100A10000860FFE780BD000080B582B0FFE740F2CC
:100A2000A600C2F200000DF1070100F089FA08B932
:100A3000FFE7F4E79DF8070002B080BD80B54EF2F5
:100A40001861C4F20F01086840F0200008604EF2FF
:100A50000861C4F20F01086840F010000860FFE769
:100A60004EF60820C4F20F000068C006002801D42A
:100A7000FFE7F5E740F2A600C2F2000000F082FABC
:100A800041F23001C4F20101086820F00100086061
:100A900041F22402C4F20102D920106041F2280080
:100AA000C4F201000123036041F22C02C4F20102EE
:100AB0006020106041F24402C4F2010240F2FF7073
:100AC000106041F23802C4F201020020106044F2CA
:100AD000204CC4F2020CDCF8000040F03000CCF8EE
:100AE000000044F21C5CC4F2020CDCF8000040F090
:100AF0003000CCF8000044F22C5CC4F2020CDCF8AC
:100B000000004FF0110E6EF31740CCF8000044F2D5
:100B1000285CC4F2020CDCF8000020F03000CCF8B5
:100B20000000106840F0100010604EF23C42CEF21F
:100B30000002106863F34F3010604EF20412CEF2E0
:100B40000002106840F000501060086840F2013266
:100B50001043086080BD000081B08DF80300FFE7FE
:100B600041F21800C4F2010000688006002801D597
:100B7000FFE7F5E79DF8030041F20001C4F201012F
:100B8000086001B07047000083B08DF80B009DF83D
:100B90000B00082804DBFFE700208DF80B00FFE7BF
:100BA00046F27930C7F27070019047F26420C6F2C5
:100BB000672000909DF80B106846405C03B07047BA
:100BC00080B586B000200590FFF7E2FD6420FFF7B6
:100BD00005FCFFF7ABFE41F28C10C0F20000FFF7FE
:100BE000C5FE41F28510C0F20000FFF7BFFE41F2E2
:100BF000E100C0F20000FFF7B9FEFFE740F2EC00B1
:100C0000C2F2000000780146039148B1FFE7039863
:100C1000012837D0FFE70398022800F0E4804FE175
:100C2000FFF7FAFE014640F2ED00C2F2000001704B
:100C30000078322825D1FFE740F2EB01C2F2000133
:100C40000020087040F26001C2F20001087040F21A
:100C5000EA01C2F200010870FFF768FE41F27E105F
:100C6000C0F20000FFF782FE41F20510C0F2000062
:100C7000FFF77CFE40F2EC01C2F200010120087097
:100C8000FFE71DE1FFF7C8FE014640F2ED00C2F2AA
:100C90000000017000785E2803D1FFE7FFF740FDF8
:100CA000A0E040F2ED00C2F200000190007800F0F8
:100CB0009BF941F26720C0F20000FFF757FE019850
:100CC0000078FFF7D1FC0198007862380146029164
:100CD000172846D80299DFE801F0212F0C44441A66
:100CE0004444444444444444364413444444443D0A
:100CF000442840F2EB01C2F200010020087037E006
:100D000040F2EB01C2F200010120087030E040F235
:100D1000EB01C2F200010220087029E040F2EB0171
:100D2000C2F200010320087022E040F2EB01C2F29F
:100D30000001042008701BE040F2EB01C2F2000148
:100D40000520087014E040F2EB01C2F20001062019
:100D500008700DE040F2EB01C2F2000107200870BC
:100D600006E040F2EB01C2F2000100200870FFE74C
:100D700041F24110C0F20000FFF7F8FD41F21520EA
:100D8000C0F20000FFF7F2FD41F2B200C0F2000035
:100D9000FFF7ECFD41F25910C0F20000FFF7E6FD4D
:100DA00041F2B910C0F20000FFF7E0FD41F22C1053
:100DB000C0F20000FFF7DAFD41F26720C0F2000048
:100DC000FFF7D4FD40F2EB00C2F200000078FFF71D
:100DD000DBFEFFF749FC40F2EC01C2F20001022009
:100DE0000870FFE76CE0FFF7D3FD80B1FFE7FFF786
:100DF00013FE014640F2ED00C2F2000001700078DF
:100E00005E2803D1FFE7FFF78BFC59E0FFE740F2D4
:100E1000EA00C2F200000078C007F0B1FFE740F23C
:100E2000EA01C2F200010020087040F2EB00C2F2B9
:100E300000000078FFF7A8FE8DF813009DF813005E
:100E400000F0D2F841F26720C0F20000FFF78EFDFB
:100E50009DF81300FFF708FCFFE740F26000C2F2C4
:100E600000000078C00750B3FFE740F26001C2F213
:100E700000010020087040F2EB00C2F20000007890
:100E8000FFF782FE8DF812009DF81200FFF764FE56
:100E900041F26720C0F20000FFF768FD9DF81200E4
:100EA000FFF7E2FB41F20510C0F20000FFF75EFD24
:100EB00040F2EC01C2F2000101200870FFE7FFE7F9
:100EC0009CE6000081B00090009900200880009905
:100ED000488001B07047000083B001908DF8031086
:100EE00001980088013000F03F00ADF80000BDF827
:100EF000000001994988884204D1FFE700208DF85D
:100F00000B000DE09DF8030001990A881144087157
:100F1000BDF800000199088001208DF80B00FFE763
:100F20009DF80B0003B0704781B0009000980088D6
:100F300000994988401AB0FA80F0400901B0704722
:100F400080B584B0029001910298FFF7EDFF20B1C7
:100F5000FFE700208DF80F0010E002984188084458
:100F600000790199087002984088013000F03F0034
:100F70000299488001208DF80F00FFE79DF80F00CF
:100F800004B080BD81B000900099002008800099D5
:100F9000488001B07047000083B001908DF80310C5
:100FA00001980088013000F03F00ADF80000BDF866
:100FB000000001994988884204D1FFE700208DF89C
:100FC0000B000DE09DF8030001990A881144087197
:100FD000BDF800000199088001208DF80B00FFE7A3
:100FE0009DF80B0003B0704780B582B08DF8070004
:100FF00045F2FC31C4F20201086820F00E000860DE
:101000009DF80700623801460091172848D80099DA
:10101000DFE801F023310C46461C4646464646466C
:101020004646384615464646463F462A45F2FC3176
:10103000C4F20201086820F00E00086037E045F2B3
:10104000FC31C4F202010220086030E045F2FC31BC
:10105000C4F202010820086029E045F2FC31C4F224
:1010600002010420086022E045F2FC31C4F20201D2
:101070000A2008601BE045F2FC31C4F202010C209A
:10108000086014E045F2FC31C4F202010620086059
:101090000DE045F2FC31C4F202010E20086006E0CA
:1010A00041F24E20C0F20000FFF760FCFFE702B003
:1010B00080BD74686520666F6C6C6F77696E6720A1
:1010C000636F6C6F7220776865656C3A204461725B
:1010D0006B2C205265642C20477265656E2C0D0ABE
:1010E0000057616974696E6720666F7220636F6D67
:1010F0006D616E642066726F6D204D435531202EF8
:101100002E2E0D0A0057616974696E6720666F7232
:1011100020636F6C6F7220636F64652066726F6D01
:10112000204D435531202E2E2E0D0A007468652067
:10113000636F6C6F7220746F204D4355312E0D0A12
:1011400000496E20636F6C6F7220576865656C2074
:1011500053746174652E0D0A00426C75652C20591C
:10116000656C6C6F772C204379616E2C2050757202
:10117000706C652C2057686974652E0D0A004D6FE0
:1011800064652032204D4355320D0A0057656C636B
:101190006F6D6520746F20434543532034343720EE
:1011A00050726F6A6563742032202D20554152546D
:1011B0000D0A005265640D0A004F6E6365206120C0
:1011C000636F6C6F722069732073656C65637465FF
:1011D000642C2070726573732073773120746F20D4
:1011E00073656E640D0A00507572706C650D0A00AF
:1011F00057686974650D0A00426C75650D0A0044F4
:1012000061726B0D0A004379616E0D0A00477265C9
:10121000656E0D0A00506C656173652070726573B0
:10122000732073773220746F20676F207468726F39
:101230007567682074686520636F6C6F72732069CE
:101240006E0D0A00556E6B6E6F776E0D0A00496E5B
:1012500076616C696420636F6C6F720D0A0059656A
:101260006C6C6F770D0A0043757272656E74206343
:101270006F6C6F723A20000088120000000000209E
:08128000F0040000EC02000084
:040000050000028570
:00000001FF
