:020000040000FA
:10000000200500206D020000710200007302000054
:100010007502000077020000790200000000000075
:100020000000000000000000000000007B02000053
:100030007D020000000000007F020000810200003D
:10004000830200008302000083020000830200009C
:1000500083020000B909000083020000830200004F
:10006000830200008302000083020000830200007C
:10007000830200008302000083020000830200006C
:10008000830200008302000083020000830200005C
:10009000830200008302000083020000830200004C
:1000A000830200008302000083020000830200003C
:1000B00083020000830200000904000083020000A4
:1000C000830200008302000083020000830200001C
:1000D000830200008302000083020000830200000C
:1000E00083020000830200008302000083020000FC
:1000F00083020000830200008302000083020000EC
:1001000083020000830200008302000083020000DB
:1001100083020000830200008302000083020000CB
:1001200083020000830200008302000083020000BB
:1001300083020000D90B000083020000830200004C
:1001400000000000000000000000000000000000AF
:10015000830200008302000083020000830200008B
:10016000000000000000000000000000000000008F
:10017000000000000000000000000000000000007F
:10018000000000000000000000000000000000006F
:10019000000000000000000000000000000000005F
:1001A000000000000000000000000000000000004F
:1001B000830200008302000083020000830200002B
:1001C000830200008302000083020000830200001B
:1001D000830200008302000083020000830200000B
:1001E00083020000830200008302000083020000FB
:1001F00083020000830200008302000083020000EB
:10020000830200008302000083020000000000005F
:1002100083020000830200008302000083020000CA
:1002200083020000830200008302000083020000BA
:1002300083020000830200008302000083020000AA
:10024000830200008302000083020000830200009A
:10025000830200008302000083020000830200008A
:1002600083020000830200008302000000F00AB84D
:10027000FEE7FEE7FEE7FEE7FEE7FEE7FEE7FEE756
:10028000FEE7FEE700F002F800F042F814A696E858
:10029000000CB244B344DA4501D100F039F8BAE8B1
:1002A0000F000FA696E83000A5EB040504EB060747
:1002B000AAEB0704A7F101074FEA15154FEA34141A
:1002C000A4F10104AC4201D300F022F813F0010FB5
:1002D00018BFFB1A43F0010300F001F8DBE71847F1
:1002E0004414000054140000704700000023002450
:1002F00000250026103A28BF78C1FBD8520728BF36
:1003000030C148BF0B6070471FB51FBD10B510BD91
:1003100000F029F81146FFF7F7FF00F07DFD00F02F
:1003200047F803B4FFF7F2FF03BC00F04FF80000FA
:1003300072B6704762B67047EFF3108072B67047BE
:1003400080F31088704730BF704702480249014A65
:10035000024B7047200100202005002020010020D2
:10036000704770477047754600F02CF8AE460500A0
:100370006946534620F00700854618B020B5FFF7C0
:10038000E4FFBDE820404FF000064FF000074FF0BB
:1003900000084FF0000BAC46ACE8C009ACE8C0095F
:1003A000ACE8C009ACE8C00921F007018D467047F0
:1003B00010B50446AFF300802046BDE81040FFF7BB
:1003C000B0BF00000048704700000020014918201D
:1003D000ABBEFEE7260002007047000082B001902D
:1003E000FFE70198411E019158B1FFE743F2D400A5
:1003F0000090FFE70098411E009108B1FFE7F9E780
:10040000EFE702B07047000080B582B045F21840B7
:10041000C4F2020000680190019845F21C41C4F248
:10042000020108609DF80400C00600282BD5FFE7F4
:100430000F20FFF7D3FF40F21810C2F2000000783F
:10044000022807D1FFE740F28D01C2F2000101202E
:10045000087017E040F21810C2F20000007804287B
:1004600008D0FFE740F21810C2F20000007805281B
:1004700007D1FFE740F26001C2F2000101200870DD
:10048000FFE7FFE7FFE79DF80400C00728B3FFE799
:100490000F20FFF7A3FF40F21810C2F2000000780F
:1004A000022819D1FFE740F21710C2F200000178CC
:1004B000013101700078082807DBFFE740F21711CF
:1004C000C2F2000100200870FFE740F21611C2F2EC
:1004D000000101200870FFE7FFE702B080BD0000C7
:1004E00080B584B000F06EFB002870D0FFE700F00C
:1004F000ADFB8DF80F009DF80F005E280BD1FFE7D4
:1005000000F02EFB40F27601C2F2000100200870DC
:1005100000F0F8F95BE09DF80F000D2819D0FFE717
:1005200040F27600C2F200000078132810DCFFE7EA
:100530009DF80F0040F27601C2F200010B7840F204
:100540006102C2F20002D054087801300870FFE75F
:100550003CE040F27600C2F200000190027840F2E6
:100560006101C2F20001009100200290885400F065
:10057000F7FA41F21B70C0F2000000F011FB41F2EB
:10058000EC60C0F2000000F00BFB009800F008FBEC
:1005900041F21070C0F2000000F002FB00F0E0FA3F
:1005A00001990298087040F21811C2F2000105206A
:1005B000087041F29F60C0F2000000F0F1FA41F2D1
:1005C000B150C0F2000000F0EBFAFFE7FFE704B023
:1005D00080BD000080B584B000F0E4F9002857D059
:1005E000FFE700F027FA8DF80F0041F21570C0F216
:1005F000000000F0D5FA9DF80F0000F0B9FA41F2C2
:100600001070C0F2000000F0CBFA9DF80F000D282A
:1006100019D0FFE740F28C00C2F2000000781328E6
:1006200010DCFFE79DF80F0040F28C01C2F20001E0
:100630000B7840F27702C2F20002D0540878013001
:100640000870FFE723E040F28C00C2F20000019046
:10065000027840F27700C2F200000021029181543A
:1006600000F0ACFB0D2000F091FB00F079FA01994D
:100670000298087040F21811C2F2000104200870BC
:1006800041F2E840C0F2000000F08AFAFFE7FFE71D
:1006900004B080BD81B04EF27001C4F20F01009130
:1006A000086840F000400860086840F40060086096
:1006B0004EF26002C4F20F02106820F4F86010607D
:1006C000106800F5A8601060086820F070000860ED
:1006D00008680860086820F400500860086840F066
:1006E000804008600868072262F39C500860FFE7BA
:1006F0004EF25000C4F20F0000684006002801D4FA
:10070000FFE7F5E74EF27001C4F20F01086820F42C
:100710000060086001B070474EF20861C4F20F013A
:10072000086840F020000860FFE74EF20860C4F25D
:100730000F00006800F02000202801D0FFE7F4E758
:1007400045F22051C4F2020144F24B30C4F64F404E
:10075000086045F22451C4F20201086840F01F000D
:10076000086045F2004CC4F2020CDCF8000040F0D6
:100770000E00CCF8000045F21C53C4F202031868C6
:1007800040F00E00186045F22852C4F202021068D0
:1007900020F00E00106045F22041C4F2020108680A
:1007A00020F00E000860DCF8000020F01100CCF80A
:1007B0000000186840F011001860106820F0110067
:1007C0001060086820F01100086045F21051C4F272
:1007D0000201086840F01100086045F20441C4F2CB
:1007E0000201086820F01100086045F20841C4F2D7
:1007F0000201086820F01100086045F20C41C4F2C3
:100800000201086820F01100086045F21C41C4F2A2
:1008100002011120086045F21041C4F2020108688B
:1008200040F0110008604EF21C41CEF20001086851
:10083000402262F3174008604EF20011CEF2000130
:10084000086840F0804008607047000080B582B0C2
:100850008DF807009DF807006238014600911728BF
:1008600046D80099DFE801F0212F0C44441A444493
:10087000444444444444364413444444443D44289A
:1008800041F24160C0F2000000F08AF937E041F225
:10089000F550C0F2000000F083F930E041F26860EA
:1008A000C0F2000000F07CF929E041F23A60C0F2A9
:1008B000000000F075F922E041F2E360C0F20000B0
:1008C00000F06EF91BE041F26160C0F2000000F040
:1008D00067F914E041F22960C0F2000000F060F90D
:1008E0000DE041F23260C0F2000000F059F906E07C
:1008F00041F2C960C0F2000000F052F9FFE702B017
:1009000080BD000080B582B040F28D01C2F20001CE
:1009100000200190087040F21611C2F20001087028
:1009200040F26001C2F20001087040F21711C2F2F9
:100930000001087040F27601C2F20001087040F236
:100940008C01C2F20001087045F2FC31C4F20201D0
:10095000086820F00E00086000F002F941F2CE5065
:10096000C0F2000000F01CF941F2AA50C0F20000F1
:1009700000F016F941F29D40C0F2000000F010F9BD
:10098000019840F21811C2F20001087002B080BD57
:1009900080B5FFF77FFEFFF7BFFE00F05DF800F0C7
:1009A00067F980BD80B540F28E00C2F2000000F011
:1009B00039FC80F0010080BD80B582B04CF23C0073
:1009C000C4F200000068C006002821D5FFE7FFE759
:1009D0004CF21800C4F200000068C006002810D4D1
:1009E000FFE74CF20000C4F2000000688DF8070039
:1009F0009DF8071040F28E00C2F2000000F04AFCA1
:100A0000E6E74CF24401C4F2000110200860FFE761
:100A10004CF23C00C4F2000000688006002807D5B4
:100A2000FFE74CF24401C4F2000120200860FFE718
:100A300002B080BD80B582B0FFE740F28E00C2F206
:100A400000000DF1070100F0F9FB08B9FFE7F4E73A
:100A50009DF8070002B080BD80B54EF21861C4F267
:100A60000F01086840F0010008604EF20861C4F20E
:100A70000F01086840F001000860FFE74EF608200B
:100A8000C4F20F000068C00708B9FFE7F6E740F2BC
:100A90008E00C2F2000000F0F3FB4CF23001C4F211
:100AA0000001086820F0010008604CF22402C4F242
:100AB0000002A22010604CF22802C4F20002312091
:100AC00010604CF22C02C4F20002602010604CF264
:100AD0004402C4F2000240F2FF7010604CF238028F
:100AE000C4F200020020106044F22043C4F200036C
:100AF000186840F00300186044F21C53C4F200036D
:100B0000186840F00300186044F22C53C4F200034C
:100B100018684FF0110C6CF30700186044F228536A
:100B2000C4F20003186820F003001860106840F059
:100B3000100010604EF20442CEF20002106820F461
:100B4000604010604EF20012CEF20002106840F0D9
:100B500020001060086840F201321043086080BD38
:100B600080B50D2000F004F80A2000F001F880BDE7
:100B700081B08DF80300FFE74CF21800C4F20000CA
:100B800000688006002801D5FFE7F5E79DF803001F
:100B90004CF20001C4F20001086001B0704700008F
:100BA00080B582B00190FFE70198007840B1FFE77F
:100BB00001980078FFF7DCFF019801300190F3E71E
:100BC00002B080BD80B540F2D200C2F2000000F059
:100BD00089FB80F0010080BD80B541F23C00C4F289
:100BE00001000068C00600281ED5FFE7FFE741F2BC
:100BF0001800C4F201000068C00600280DD4FFE709
:100C000041F20000C4F201000068C1B240F2D2001B
:100C1000C2F2000000F09EFBE9E741F24401C4F299
:100C2000010110200860FFE741F23C00C4F201001E
:100C300000688006002807D5FFE741F24401C4F2AE
:100C4000010120200860FFE780BD000080B582B070
:100C5000FFE740F2D200C2F200000DF1070100F000
:100C60004DFB08B9FFE7F4E79DF8070002B080BD2F
:100C700080B54EF21861C4F20F01086840F0200000
:100C800008604EF20861C4F20F01086840F01000DD
:100C90000860FFE74EF60820C4F20F00006800F07D
:100CA0001000102801D0FFE7F4E740F2D200C2F2B2
:100CB000000000F045FB41F23001C4F20101086878
:100CC00020F00100086041F22402C4F20102D920A0
:100CD000106041F22800C4F201000123036041F2D8
:100CE0002C02C4F201026020106041F24402C4F2FE
:100CF000010240F2FF70106041F23802C4F20102BA
:100D00000020106044F2204CC4F2020CDCF8000019
:100D100040F03000CCF8000044F21C5CC4F2020C3D
:100D2000DCF8000040F03000CCF8000044F22C5C0D
:100D3000C4F2020CDCF800004FF0110E6EF3174005
:100D4000CCF8000044F2285CC4F2020CDCF800008D
:100D500020F03000CCF80000106840F01000106067
:100D60004EF23C42CEF20002106863F34F30106046
:100D70004EF20412CEF20002106840F000501060F3
:100D8000086840F201321043086080BD81B08DF8E0
:100D90000300FFE741F21800C4F20100006880067A
:100DA000002801D5FFE7F5E79DF8030041F20001B7
:100DB000C4F20101086001B07047000080B582B044
:100DC0000190FFE70198007840B1FFE701980078B3
:100DD000FFF7DCFF019801300190F3E702B080BD1E
:100DE00083B08DF80B009DF80B00082804DBFFE7AB
:100DF00000208DF80B00FFE746F27930C7F27070E3
:100E0000019047F26420C6F2672000909DF80B1015
:100E10006846405C03B0704780B586B000200590FE
:100E2000FFF7B6FD6420FFF7D9FAFFF799FE41F20C
:100E3000CE50C0F20000FFF7B3FE41F2AA50C0F25C
:100E40000000FFF7ADFE41F29D40C0F20000FFF749
:100E5000A7FEFFE740F21810C2F20000007801463A
:100E60000391052800F2DC810399DFE811F0060008
:100E70004E00FF006C019901B901FFF7A3FE0028A5
:100E800042D0FFE7FFF7E2FE014640F21910C2F23E
:100E9000000001700078322825D1FFE740F21711D9
:100EA000C2F200010020087040F28D01C2F2000180
:100EB000087040F21611C2F200010870FFF750FEF0
:100EC00041F2A350C0F20000FFF76AFE41F2C140B8
:100ED000C0F20000FFF764FE40F21811C2F20001F8
:100EE000012008700FE040F21910C2F200000078F3
:100EF000332807D1FFE740F21811C2F200010320A6
:100F00000870FFE7FFE7FFE78AE1FFF79FFE014672
:100F100040F21910C2F20000017000785E2803D17F
:100F2000FFE7FFF7EFFCA0E040F21910C2F200006B
:100F30000190007800F036FA41F20070C0F2000033
:100F4000FFF72EFE01980078FFF780FC01980078EB
:100F5000623801460291172846D80299DFE801F06D
:100F6000212F0C44441A44444444444444443644E9
:100F700013444444443D442840F21711C2F2000196
:100F80000020087037E040F21711C2F20001012082
:100F9000087030E040F21711C2F200010220087020
:100FA00029E040F21711C2F200010320087022E08C
:100FB00040F21711C2F20001042008701BE040F259
:100FC0001711C2F200010520087014E040F2171159
:100FD000C2F20001062008700DE040F21711C2F2C3
:100FE00000010720087006E040F21711C2F200016C
:100FF00000200870FFE741F23750C0F20000FFF711
:10100000CFFD41F27060C0F20000FFF7C9FD41F270
:101010006E40C0F20000FFF7C3FD41F24F50C0F236
:101020000000FFF7BDFD41F2FB50C0F20000FFF7EA
:10103000B7FD41F22250C0F20000FFF7B1FD41F2CE
:101040000070C0F20000FFF7ABFD40F21710C2F2D3
:1010500000000078FFF7C4FEFFF7F8FB40F218111C
:10106000C2F2000102200870FFE7D9E0FFF7AAFDF5
:1010700080B1FFE7FFF7EAFD014640F21910C2F226
:101080000000017000785E2803D1FFE7FFF73AFC0B
:10109000C6E0FFE740F21610C2F200000078C00779
:1010A000F0B1FFE740F21611C2F200010020087013
:1010B00040F21710C2F200000078FFF791FE8DF8A1
:1010C00013009DF8130000F06DF941F20070C0F2BA
:1010D0000000FFF765FD9DF81300FFF7B7FBFFE782
:1010E00040F28D00C2F200000078C00750B3FFE765
:1010F00040F28D01C2F200010020087040F217108A
:10110000C2F200000078FFF76BFE8DF812009DF828
:101110001200FFF73BFE41F20070C0F20000FFF743
:101120003FFD9DF81200FFF791FB41F2C140C0F274
:101130000000FFF735FD40F21811C2F20001012056
:101140000870FFE76CE040F26001C2F2000100208D
:10115000087040F28C01C2F20001087040F2760182
:10116000C2F200010870FFF7FBFC41F24860C0F2D8
:101170000000FFF715FD41F27450C0F20000FFF7C8
:101180000FFDFFF7EDFC41F2E840C0F20000FFF771
:1011900007FD40F21811C2F20001042008703FE080
:1011A00040F26000C2F200000078C007A0B1FFE783
:1011B00040F26001C2F20001002008705E20FFF7DB
:1011C000E5FDFFF7CDFC41F20E50C0F20000FFF745
:1011D000E7FCFFF797FB02E0FFF782F9FFE71FE06C
:1011E00040F26000C2F200000078C007A0B1FFE743
:1011F00040F26001C2F20001002008705E20FFF79B
:10120000C5FDFFF7ADFC41F20E50C0F20000FFF744
:10121000C7FCFFF777FB02E0FFF7DCF9FFE7FFE72A
:1012200018E6000081B00090009800880099498875
:10123000401AB0FA80F0400901B0704780B584B020
:10124000029001910298FFF7EDFF20B1FFE7002027
:101250008DF80F0010E00298418808440079019948
:10126000087002984088013000F03F0002994880E1
:1012700001208DF80F00FFE79DF80F0004B080BD3E
:1012800081B000900099002008800099488001B04A
:101290007047000083B001908DF80310019800881A
:1012A000013000F03F00ADF80000BDF800000199EA
:1012B0004988884204D1FFE700208DF80B000DE03B
:1012C0009DF8030001990A8811440871BDF80000D7
:1012D0000199088001208DF80B00FFE79DF80B00B5
:1012E00003B0704781B00090009800880099498849
:1012F000401AB0FA80F0400901B0704780B584B060
:10130000029001910298FFF7EDFF20B1FFE7002066
:101310008DF80F0010E00298418808440079019987
:10132000087002984088013000F03F000299488020
:1013300001208DF80F00FFE79DF80F0004B080BD7D
:1013400081B000900099002008800099488001B089
:101350007047000083B001908DF803100198008859
:10136000013000F03F00ADF80000BDF80000019929
:101370004988884204D1FFE700208DF80B000DE07A
:101380009DF8030001990A8811440871BDF8000016
:101390000199088001208DF80B00FFE79DF80B00F4
:1013A00003B0704780B582B08DF8070045F2FC317C
:1013B000C4F20201086820F00E0008609DF80700E2
:1013C000623801460091172848D80099DFE801F0FB
:1013D00023310C46461C4646464646464646384657
:1013E00015464646463F462A45F2FC31C4F2020104
:1013F000086820F00E00086037E045F2FC31C4F2C6
:1014000002010220086030E045F2FC31C4F2020122
:101410000820086029E045F2FC31C4F202010420F2
:10142000086022E045F2FC31C4F202010A200860A3
:101430001BE045F2FC31C4F202010C20086014E00C
:1014400045F2FC31C4F20201062008600DE045F2CD
:10145000FC31C4F202010E20086006E041F2D360C4
:10146000C0F20000FFF79CFBFFE702B080BD74688C
:101470006520666F6C6C6F77696E6720636F6C6F49
:101480007220776865656C3A204461726B2C20523B
:1014900065642C20477265656E2C0D0A00576169E2
:1014A00074696E6720666F7220636F6D6D616E6424
:1014B0002066726F6D204D435531202E2E2E0D0A61
:1014C0000057616974696E6720666F7220636F6C84
:1014D0006F7220636F64652066726F6D204D435597
:1014E00031202E2E2E0D0A0057616974696E672017
:1014F000666F722061206D65737361676520667227
:101500006F6D204D435531202E2E2E0D0A0045784B
:101510006974696E67204D6F646520332E2E2E0D21
:101520000A0074686520636F6C6F7220746F204DC1
:101530004355312E0D0A00496E20636F6C6F722087
:10154000576865656C2053746174652E0D0A0042FE
:101550006C75652C2059656C6C6F772C2043796114
:101560006E2C20507572706C652C205768697465FC
:101570002E0D0A00507265737320737731206174E9
:1015800020616E792074696D6520746F20657869BB
:101590007420746865206368617420726F6F6D2EAB
:1015A0000D0A004D6F64652032204D4355320D0AFF
:1015B00000286C657373207468616E20323020637C
:1015C000686172616374657273293A0D0A00576528
:1015D0006C636F6D6520746F204345435320343432
:1015E000372050726F6A6563742032202D20554178
:1015F00052540D0A005265640D0A004F6E63652057
:101600006120636F6C6F722069732073656C656312
:101610007465642C20707265737320737731207445
:101620006F2073656E640D0A00507572706C650DE5
:101630000A0057686974650D0A00426C75650D0AE9
:10164000004461726B0D0A004D6F64652033204DBC
:101650004355323A204368617420526F6F6D0D0A12
:10166000004379616E0D0A00477265656E0D0A00D0
:10167000506C656173652070726573732073773287
:1016800020746F20676F207468726F7567682074AC
:10169000686520636F6C6F727320696E0D0A00506D
:1016A0006C6561736520747970652061206D657368
:1016B0007361676520656E642077697468206120B6
:1016C00072657475726E0D0A00556E6B6E6F776E73
:1016D0000D0A00496E76616C696420636F6C6F72ED
:1016E0000D0A0059656C6C6F770D0A004D657373B8
:1016F0006167652066726F6D204D4355313A200059
:1017000043757272656E7420636F6C6F723A20005D
:101710001B5B306D001B5B33326D001B5B33356D23
:101720000000000034170000000000202005000029
:04173000EC020000C7
:040000050000028570
:00000001FF
