:020000040000FA
:10000000F00400206D020000710200007302000085
:100010007502000077020000790200000000000075
:100020000000000000000000000000007B02000053
:100030007D020000000000007F020000810200003D
:10004000830200008302000083020000830200009C
:100050008302000009070000830200008302000001
:10006000830200008302000083020000830200007C
:10007000830200008302000083020000830200006C
:10008000830200008302000083020000830200005C
:10009000830200008302000083020000830200004C
:1000A000830200008302000083020000830200003C
:1000B00083020000830200000904000083020000A4
:1000C000830200008302000083020000830200001C
:1000D000830200008302000083020000830200000C
:1000E00083020000830200008302000083020000FC
:1000F00083020000830200008302000083020000EC
:1001000083020000830200008302000083020000DB
:1001100083020000830200008302000083020000CB
:1001200083020000830200008302000083020000BB
:100130008302000091080000830200008302000097
:1001400000000000000000000000000000000000AF
:10015000830200008302000083020000830200008B
:10016000000000000000000000000000000000008F
:10017000000000000000000000000000000000007F
:10018000000000000000000000000000000000006F
:10019000000000000000000000000000000000005F
:1001A000000000000000000000000000000000004F
:1001B000830200008302000083020000830200002B
:1001C000830200008302000083020000830200001B
:1001D000830200008302000083020000830200000B
:1001E00083020000830200008302000083020000FB
:1001F00083020000830200008302000083020000EB
:10020000830200008302000083020000000000005F
:1002100083020000830200008302000083020000CA
:1002200083020000830200008302000083020000BA
:1002300083020000830200008302000083020000AA
:10024000830200008302000083020000830200009A
:10025000830200008302000083020000830200008A
:1002600083020000830200008302000000F00AB84D
:10027000FEE7FEE7FEE7FEE7FEE7FEE7FEE7FEE756
:10028000FEE7FEE700F002F800F042F814A696E858
:10029000000CB244B344DA4501D100F039F8BAE8B1
:1002A0000F000FA696E83000A5EB040504EB060747
:1002B000AAEB0704A7F101074FEA15154FEA34141A
:1002C000A4F10104AC4201D300F022F813F0010FB5
:1002D00018BFFB1A43F0010300F001F8DBE71847F1
:1002E000B0080000C0080000704700000023002490
:1002F00000250026103A28BF78C1FBD8520728BF36
:1003000030C148BF0B6070471FB51FBD10B510BD91
:1003100000F029F81146FFF7F7FF00F093FB00F01B
:1003200047F803B4FFF7F2FF03BC00F04FF80000FA
:1003300072B6704762B67047EFF3108072B67047BE
:1003400080F31088704730BF704702480249014A65
:10035000024B7047F0000020F0040020F000002065
:10036000704770477047754600F02CF8AE460500A0
:100370006946534620F00700854618B020B5FFF7C0
:10038000E4FFBDE820404FF000064FF000074FF0BB
:1003900000084FF0000BAC46ACE8C009ACE8C0095F
:1003A000ACE8C009ACE8C00921F007018D467047F0
:1003B00010B50446AFF300802046BDE81040FFF7BB
:1003C000B0BF00000048704700000020014918201D
:1003D000ABBEFEE7260002007047000082B001902D
:1003E000FFE70198411E019158B1FFE743F2D400A5
:1003F0000090FFE70098411E009108B1FFE7F9E780
:10040000EFE702B07047000080B582B045F21840B7
:10041000C4F2020000680190019845F21C41C4F248
:10042000020108609DF80400C00600280AD5FFE715
:100430001420FFF7D3FF40F26001C2F20001012057
:100440000870FFE79DF80400C007B0B1FFE7142073
:10045000FFF7C4FF40F2EA00C2F200000178013168
:1004600001700078082807D1FFE740F2EA01C2F2E4
:10047000000100200870FFE7FFE702B080BD000028
:1004800082B08DF8070045F2FC31C4F20201086821
:1004900020F00E0008609DF80700623801460091C8
:1004A000172848D80099DFE801F023310C46461C94
:1004B0004646464646464646384615464646463F22
:1004C000462A45F2FC31C4F20201086820F00E0011
:1004D000086030E045F2FC31C4F2020102200860FD
:1004E00029E045F2FC31C4F202010820086022E054
:1004F00045F2FC31C4F20201042008601BE045F221
:10050000FC31C4F202010A20086014E045F2FC311B
:10051000C4F202010C2008600DE045F2FC31C4F287
:1005200002010620086006E045F2FC31C4F2020137
:100530000E200860FFE702B07047000081B04EF265
:100540007001C4F20F010091086840F0004008609B
:10055000086840F4006008604EF26002C4F20F02C6
:10056000106820F4F8601060106800F5A860106052
:10057000086820F07000086008680860086820F4C7
:1005800000500860086840F0804008600868072252
:1005900062F39C500860FFE74EF25000C4F20F0077
:1005A00000684006002801D4FFE7F5E74EF270012D
:1005B000C4F20F01086820F40060086001B07047C1
:1005C0004EF20861C4F20F01086840F02000086094
:1005D000FFE74EF20860C4F20F00006800F0200050
:1005E000202801D0FFE7F4E745F22051C4F20201D0
:1005F00044F24B30C4F64F40086045F22451C4F237
:100600000201086840F01F00086045F2004CC4F287
:10061000020CDCF8000040F00E00CCF8000045F2BF
:100620001C53C4F20203186840F00E00186045F233
:100630002852C4F20202106820F00E00106045F249
:100640002041C4F20201086820F00E000860DCF8C6
:10065000000020F01100CCF80000186840F01100F4
:100660001860106820F011001060086820F0110078
:10067000086045F21051C4F20201086840F0110010
:10068000086045F20441C4F20201086820F011003C
:10069000086045F20841C4F20201086820F0110028
:1006A000086045F20C41C4F20201086820F0110014
:1006B000086045F21C41C4F202011120086045F2B5
:1006C0001041C4F20201086840F0110008604EF2C7
:1006D0001C41CEF200010868402262F31740086016
:1006E0004EF20011CEF20001086840F08040086030
:1006F0007047000080B5FFF721FFFFF761FF00F0B2
:1007000041F800F011F980BD80B582B04CF23C0098
:10071000C4F200000068C006002821D5FFE7FFE70B
:100720004CF21800C4F200000068C006002810D483
:10073000FFE74CF20000C4F2000000688DF80700EB
:100740009DF8071040F26200C2F2000000F098F934
:10075000E6E74CF24401C4F2000110200860FFE714
:100760004CF23C00C4F2000000688006002807D567
:10077000FFE74CF24401C4F2000120200860FFE7CB
:1007800002B080BD80B54EF21861C4F20F01086856
:1007900040F0010008604EF20861C4F20F010868E1
:1007A00040F001000860FFE74EF60820C4F20F0099
:1007B0000068C00708B9FFE7F6E740F26200C2F23E
:1007C000000000F053F94CF23001C4F20001086857
:1007D00020F0010008604CF22402C4F2000240F252
:1007E000451010604CF22802C4F200022120106073
:1007F0004CF22C02C4F20002602010604CF2440261
:10080000C4F2000240F2FF7010604CF23802C4F2F1
:1008100000020020106044F22043C4F20003186874
:1008200040F00300186044F21C53C4F2000318683F
:1008300040F00300186044F22C53C4F2000318681F
:100840004FF0110C6CF30700186044F22853C4F207
:100850000003186820F003001860106840F01000D2
:1008600010604EF20442CEF20002106820F46040A4
:1008700010604EF20012CEF20002106840F020002C
:100880001060086840F201321043086080BD00002B
:1008900080B541F23C00C4F201000068C0060028A7
:1008A0001ED5FFE7FFE741F21800C4F2010000681F
:1008B000C00600280DD4FFE741F20000C4F2010099
:1008C0000068C1B240F2A600C2F2000000F038F9A0
:1008D000E9E741F24401C4F2010110200860FFE79A
:1008E00041F23C00C4F2010000688006002807D5F0
:1008F000FFE741F24401C4F2010120200860FFE754
:1009000080BD000080B582B0FFE740F2A600C2F2D1
:1009100000000DF1070100F0E7F808B9FFE7F4E780
:100920009DF8070002B080BD80B54EF21861C4F298
:100930000F01086840F0200008604EF20861C4F220
:100940000F01086840F010000860FFE74EF608202D
:10095000C4F20F000068C006002801D4FFE7F5E7E5
:1009600040F2A600C2F2000000F0E0F841F23001CF
:10097000C4F20101086820F00100086041F224027D
:10098000C4F20102D920106041F22800C4F2010033
:100990000123036041F22C02C4F2010260201060C6
:1009A00041F24402C4F2010240F2FF70106041F2D1
:1009B0003802C4F201020020106044F2204CC4F25C
:1009C000020CDCF8000040F03000CCF8000044F2EB
:1009D0001C5CC4F2020CDCF8000040F03000CCF8E3
:1009E000000044F22C5CC4F2020CDCF800004FF072
:1009F000110E6EF31740CCF8000044F2285CC4F2EC
:100A0000020CDCF8000020F03000CCF80000106888
:100A100040F0100010604EF23C42CEF2000210682E
:100A200063F34F3010604EF20412CEF200021068F1
:100A300040F000501060086840F201321043086036
:100A400080BD000080B582B000200190FFF752FE0B
:100A50006420FFF7C3FCFFE7FFF754FF8DF80300A6
:100A60009DF80300FFF70CFDF6E7000081B0009051
:100A70000099002008800099488001B0704700006C
:100A800083B001908DF8031001980088013000F0C8
:100A90003F00ADF80000BDF8000001994988884288
:100AA00004D1FFE700208DF80B000DE09DF8030056
:100AB00001990A8811440871BDF800000199088065
:100AC00001208DF80B00FFE79DF80B0003B0704785
:100AD00081B000900098008800994988401AB0FAC7
:100AE00080F0400901B0704780B584B00290019158
:100AF0000298FFF7EDFF20B1FFE700208DF80F000F
:100B000010E0029841880844007901990870029821
:100B10004088013000F03F000299488001208DF8A4
:100B20000F00FFE79DF80F0004B080BD81B000907A
:100B30000099002008800099488001B070470000AB
:100B400083B001908DF8031001980088013000F007
:100B50003F00ADF80000BDF80000019949888842C7
:100B600004D1FFE700208DF80B000DE09DF8030095
:100B700001990A8811440871BDF8000001990880A4
:100B800001208DF80B00FFE79DF80B0003B07047C4
:100B9000A00B000000000020F0040000EC020000A8
:040000050000028570
:00000001FF
